{
  "_format": "hh-sol-artifact-1",
  "contractName": "NFT",
  "sourceName": "contracts/NFT.sol",
  "abi": [
    {
      "inputs": [
        {
          "internalType": "address",
          "name": "_marketAddress",
          "type": "address"
        }
      ],
      "stateMutability": "nonpayable",
      "type": "constructor"
    },
    {
      "anonymous": false,
      "inputs": [
        {
          "indexed": true,
          "internalType": "address",
          "name": "owner",
          "type": "address"
        },
        {
          "indexed": true,
          "internalType": "address",
          "name": "approved",
          "type": "address"
        },
        {
          "indexed": true,
          "internalType": "uint256",
          "name": "tokenId",
          "type": "uint256"
        }
      ],
      "name": "Approval",
      "type": "event"
    },
    {
      "anonymous": false,
      "inputs": [
        {
          "indexed": true,
          "internalType": "address",
          "name": "owner",
          "type": "address"
        },
        {
          "indexed": true,
          "internalType": "address",
          "name": "operator",
          "type": "address"
        },
        {
          "indexed": false,
          "internalType": "bool",
          "name": "approved",
          "type": "bool"
        }
      ],
      "name": "ApprovalForAll",
      "type": "event"
    },
    {
      "anonymous": false,
      "inputs": [
        {
          "indexed": true,
          "internalType": "address",
          "name": "from",
          "type": "address"
        },
        {
          "indexed": true,
          "internalType": "address",
          "name": "to",
          "type": "address"
        },
        {
          "indexed": true,
          "internalType": "uint256",
          "name": "tokenId",
          "type": "uint256"
        }
      ],
      "name": "Transfer",
      "type": "event"
    },
    {
      "inputs": [
        {
          "internalType": "address",
          "name": "to",
          "type": "address"
        },
        {
          "internalType": "uint256",
          "name": "tokenId",
          "type": "uint256"
        }
      ],
      "name": "approve",
      "outputs": [],
      "stateMutability": "nonpayable",
      "type": "function"
    },
    {
      "inputs": [
        {
          "internalType": "address",
          "name": "owner",
          "type": "address"
        }
      ],
      "name": "balanceOf",
      "outputs": [
        {
          "internalType": "uint256",
          "name": "",
          "type": "uint256"
        }
      ],
      "stateMutability": "view",
      "type": "function"
    },
    {
      "inputs": [],
      "name": "contractAddress",
      "outputs": [
        {
          "internalType": "address",
          "name": "",
          "type": "address"
        }
      ],
      "stateMutability": "view",
      "type": "function"
    },
    {
      "inputs": [
        {
          "internalType": "string",
          "name": "_tokenURI",
          "type": "string"
        }
      ],
      "name": "createToken",
      "outputs": [
        {
          "internalType": "uint256",
          "name": "",
          "type": "uint256"
        }
      ],
      "stateMutability": "nonpayable",
      "type": "function"
    },
    {
      "inputs": [
        {
          "internalType": "uint256",
          "name": "tokenId",
          "type": "uint256"
        }
      ],
      "name": "getApproved",
      "outputs": [
        {
          "internalType": "address",
          "name": "",
          "type": "address"
        }
      ],
      "stateMutability": "view",
      "type": "function"
    },
    {
      "inputs": [
        {
          "internalType": "address",
          "name": "owner",
          "type": "address"
        },
        {
          "internalType": "address",
          "name": "operator",
          "type": "address"
        }
      ],
      "name": "isApprovedForAll",
      "outputs": [
        {
          "internalType": "bool",
          "name": "",
          "type": "bool"
        }
      ],
      "stateMutability": "view",
      "type": "function"
    },
    {
      "inputs": [],
      "name": "name",
      "outputs": [
        {
          "internalType": "string",
          "name": "",
          "type": "string"
        }
      ],
      "stateMutability": "view",
      "type": "function"
    },
    {
      "inputs": [
        {
          "internalType": "uint256",
          "name": "tokenId",
          "type": "uint256"
        }
      ],
      "name": "ownerOf",
      "outputs": [
        {
          "internalType": "address",
          "name": "",
          "type": "address"
        }
      ],
      "stateMutability": "view",
      "type": "function"
    },
    {
      "inputs": [
        {
          "internalType": "address",
          "name": "from",
          "type": "address"
        },
        {
          "internalType": "address",
          "name": "to",
          "type": "address"
        },
        {
          "internalType": "uint256",
          "name": "tokenId",
          "type": "uint256"
        }
      ],
      "name": "safeTransferFrom",
      "outputs": [],
      "stateMutability": "nonpayable",
      "type": "function"
    },
    {
      "inputs": [
        {
          "internalType": "address",
          "name": "from",
          "type": "address"
        },
        {
          "internalType": "address",
          "name": "to",
          "type": "address"
        },
        {
          "internalType": "uint256",
          "name": "tokenId",
          "type": "uint256"
        },
        {
          "internalType": "bytes",
          "name": "_data",
          "type": "bytes"
        }
      ],
      "name": "safeTransferFrom",
      "outputs": [],
      "stateMutability": "nonpayable",
      "type": "function"
    },
    {
      "inputs": [
        {
          "internalType": "address",
          "name": "operator",
          "type": "address"
        },
        {
          "internalType": "bool",
          "name": "approved",
          "type": "bool"
        }
      ],
      "name": "setApprovalForAll",
      "outputs": [],
      "stateMutability": "nonpayable",
      "type": "function"
    },
    {
      "inputs": [
        {
          "internalType": "bytes4",
          "name": "interfaceId",
          "type": "bytes4"
        }
      ],
      "name": "supportsInterface",
      "outputs": [
        {
          "internalType": "bool",
          "name": "",
          "type": "bool"
        }
      ],
      "stateMutability": "view",
      "type": "function"
    },
    {
      "inputs": [],
      "name": "symbol",
      "outputs": [
        {
          "internalType": "string",
          "name": "",
          "type": "string"
        }
      ],
      "stateMutability": "view",
      "type": "function"
    },
    {
      "inputs": [
        {
          "internalType": "uint256",
          "name": "tokenId",
          "type": "uint256"
        }
      ],
      "name": "tokenURI",
      "outputs": [
        {
          "internalType": "string",
          "name": "",
          "type": "string"
        }
      ],
      "stateMutability": "view",
      "type": "function"
    },
    {
      "inputs": [
        {
          "internalType": "address",
          "name": "from",
          "type": "address"
        },
        {
          "internalType": "address",
          "name": "to",
          "type": "address"
        },
        {
          "internalType": "uint256",
          "name": "tokenId",
          "type": "uint256"
        }
      ],
      "name": "transferFrom",
      "outputs": [],
      "stateMutability": "nonpayable",
      "type": "function"
    }
  ],
  "bytecode": "0x60806040523480156200001157600080fd5b5060405162002eeb38038062002eeb8339818101604052810190620000379190620001e6565b6040518060400160405280600d81526020017f454e5445525441494e4d454e54000000000000000000000000000000000000008152506040518060400160405280600381526020017f45545400000000000000000000000000000000000000000000000000000000008152508160009080519060200190620000bb9291906200011f565b508060019080519060200190620000d49291906200011f565b50505080600860006101000a81548173ffffffffffffffffffffffffffffffffffffffff021916908373ffffffffffffffffffffffffffffffffffffffff16021790555050620002d0565b8280546200012d906200024c565b90600052602060002090601f0160209004810192826200015157600085556200019d565b82601f106200016c57805160ff19168380011785556200019d565b828001600101855582156200019d579182015b828111156200019c5782518255916020019190600101906200017f565b5b509050620001ac9190620001b0565b5090565b5b80821115620001cb576000816000905550600101620001b1565b5090565b600081519050620001e081620002b6565b92915050565b600060208284031215620001ff57620001fe620002b1565b5b60006200020f84828501620001cf565b91505092915050565b600062000225826200022c565b9050919050565b600073ffffffffffffffffffffffffffffffffffffffff82169050919050565b600060028204905060018216806200026557607f821691505b602082108114156200027c576200027b62000282565b5b50919050565b7f4e487b7100000000000000000000000000000000000000000000000000000000600052602260045260246000fd5b600080fd5b620002c18162000218565b8114620002cd57600080fd5b50565b612c0b80620002e06000396000f3fe608060405234801561001057600080fd5b50600436106100f55760003560e01c80636352211e11610097578063b88d4fde11610066578063b88d4fde14610296578063c87b56dd146102b2578063e985e9c5146102e2578063f6b4dfb414610312576100f5565b80636352211e146101fc57806370a082311461022c57806395d89b411461025c578063a22cb4651461027a576100f5565b8063095ea7b3116100d3578063095ea7b31461017857806323b872dd1461019457806342842e0e146101b057806345576f94146101cc576100f5565b806301ffc9a7146100fa57806306fdde031461012a578063081812fc14610148575b600080fd5b610114600480360381019061010f9190611c20565b610330565b604051610121919061207b565b60405180910390f35b610132610412565b60405161013f9190612096565b60405180910390f35b610162600480360381019061015d9190611cc3565b6104a4565b60405161016f9190612014565b60405180910390f35b610192600480360381019061018d9190611be0565b610529565b005b6101ae60048036038101906101a99190611aca565b610641565b005b6101ca60048036038101906101c59190611aca565b6106a1565b005b6101e660048036038101906101e19190611c7a565b6106c1565b6040516101f391906122b8565b60405180910390f35b61021660048036038101906102119190611cc3565b610725565b6040516102239190612014565b60405180910390f35b61024660048036038101906102419190611a5d565b6107d7565b60405161025391906122b8565b60405180910390f35b61026461088f565b6040516102719190612096565b60405180910390f35b610294600480360381019061028f9190611ba0565b610921565b005b6102b060048036038101906102ab9190611b1d565b610aa2565b005b6102cc60048036038101906102c79190611cc3565b610b04565b6040516102d99190612096565b60405180910390f35b6102fc60048036038101906102f79190611a8a565b610c56565b604051610309919061207b565b60405180910390f35b61031a610cea565b6040516103279190612014565b60405180910390f35b60007f80ac58cd000000000000000000000000000000000000000000000000000000007bffffffffffffffffffffffffffffffffffffffffffffffffffffffff1916827bffffffffffffffffffffffffffffffffffffffffffffffffffffffff191614806103fb57507f5b5e139f000000000000000000000000000000000000000000000000000000007bffffffffffffffffffffffffffffffffffffffffffffffffffffffff1916827bffffffffffffffffffffffffffffffffffffffffffffffffffffffff1916145b8061040b575061040a82610d10565b5b9050919050565b6060600080546104219061250e565b80601f016020809104026020016040519081016040528092919081815260200182805461044d9061250e565b801561049a5780601f1061046f5761010080835404028352916020019161049a565b820191906000526020600020905b81548152906001019060200180831161047d57829003601f168201915b5050505050905090565b60006104af82610d7a565b6104ee576040517f08c379a00000000000000000000000000000000000000000000000000000000081526004016104e590612218565b60405180910390fd5b6004600083815260200190815260200160002060009054906101000a900473ffffffffffffffffffffffffffffffffffffffff169050919050565b600061053482610725565b90508073ffffffffffffffffffffffffffffffffffffffff168373ffffffffffffffffffffffffffffffffffffffff1614156105a5576040517f08c379a000000000000000000000000000000000000000000000000000000000815260040161059c90612278565b60405180910390fd5b8073ffffffffffffffffffffffffffffffffffffffff166105c4610de6565b73ffffffffffffffffffffffffffffffffffffffff1614806105f357506105f2816105ed610de6565b610c56565b5b610632576040517f08c379a000000000000000000000000000000000000000000000000000000000815260040161062990612158565b60405180910390fd5b61063c8383610dee565b505050565b61065261064c610de6565b82610ea7565b610691576040517f08c379a000000000000000000000000000000000000000000000000000000000815260040161068890612298565b60405180910390fd5b61069c838383610f85565b505050565b6106bc83838360405180602001604052806000815250610aa2565b505050565b60006106cd60076111e1565b60006106d960076111f7565b90506106e53382611205565b6106ef81846113d3565b61071c600860009054906101000a900473ffffffffffffffffffffffffffffffffffffffff166001610921565b80915050919050565b6000806002600084815260200190815260200160002060009054906101000a900473ffffffffffffffffffffffffffffffffffffffff169050600073ffffffffffffffffffffffffffffffffffffffff168173ffffffffffffffffffffffffffffffffffffffff1614156107ce576040517f08c379a00000000000000000000000000000000000000000000000000000000081526004016107c590612198565b60405180910390fd5b80915050919050565b60008073ffffffffffffffffffffffffffffffffffffffff168273ffffffffffffffffffffffffffffffffffffffff161415610848576040517f08c379a000000000000000000000000000000000000000000000000000000000815260040161083f90612178565b60405180910390fd5b600360008373ffffffffffffffffffffffffffffffffffffffff1673ffffffffffffffffffffffffffffffffffffffff168152602001908152602001600020549050919050565b60606001805461089e9061250e565b80601f01602080910402602001604051908101604052809291908181526020018280546108ca9061250e565b80156109175780601f106108ec57610100808354040283529160200191610917565b820191906000526020600020905b8154815290600101906020018083116108fa57829003601f168201915b5050505050905090565b610929610de6565b73ffffffffffffffffffffffffffffffffffffffff168273ffffffffffffffffffffffffffffffffffffffff161415610997576040517f08c379a000000000000000000000000000000000000000000000000000000000815260040161098e90612118565b60405180910390fd5b80600560006109a4610de6565b73ffffffffffffffffffffffffffffffffffffffff1673ffffffffffffffffffffffffffffffffffffffff16815260200190815260200160002060008473ffffffffffffffffffffffffffffffffffffffff1673ffffffffffffffffffffffffffffffffffffffff16815260200190815260200160002060006101000a81548160ff0219169083151502179055508173ffffffffffffffffffffffffffffffffffffffff16610a51610de6565b73ffffffffffffffffffffffffffffffffffffffff167f17307eab39ab6107e8899845ad3d59bd9653f200f220920489ca2b5937696c3183604051610a96919061207b565b60405180910390a35050565b610ab3610aad610de6565b83610ea7565b610af2576040517f08c379a0000000000000000000000000000000000000000000000000000000008152600401610ae990612298565b60405180910390fd5b610afe84848484611447565b50505050565b6060610b0f82610d7a565b610b4e576040517f08c379a0000000000000000000000000000000000000000000000000000000008152600401610b45906121f8565b60405180910390fd5b6000600660008481526020019081526020016000208054610b6e9061250e565b80601f0160208091040260200160405190810160405280929190818152602001828054610b9a9061250e565b8015610be75780601f10610bbc57610100808354040283529160200191610be7565b820191906000526020600020905b815481529060010190602001808311610bca57829003601f168201915b505050505090506000610bf86114a3565b9050600081511415610c0e578192505050610c51565b600082511115610c43578082604051602001610c2b929190611ff0565b60405160208183030381529060405292505050610c51565b610c4c846114ba565b925050505b919050565b6000600560008473ffffffffffffffffffffffffffffffffffffffff1673ffffffffffffffffffffffffffffffffffffffff16815260200190815260200160002060008373ffffffffffffffffffffffffffffffffffffffff1673ffffffffffffffffffffffffffffffffffffffff16815260200190815260200160002060009054906101000a900460ff16905092915050565b600860009054906101000a900473ffffffffffffffffffffffffffffffffffffffff1681565b60007f01ffc9a7000000000000000000000000000000000000000000000000000000007bffffffffffffffffffffffffffffffffffffffffffffffffffffffff1916827bffffffffffffffffffffffffffffffffffffffffffffffffffffffff1916149050919050565b60008073ffffffffffffffffffffffffffffffffffffffff166002600084815260200190815260200160002060009054906101000a900473ffffffffffffffffffffffffffffffffffffffff1673ffffffffffffffffffffffffffffffffffffffff1614159050919050565b600033905090565b816004600083815260200190815260200160002060006101000a81548173ffffffffffffffffffffffffffffffffffffffff021916908373ffffffffffffffffffffffffffffffffffffffff160217905550808273ffffffffffffffffffffffffffffffffffffffff16610e6183610725565b73ffffffffffffffffffffffffffffffffffffffff167f8c5be1e5ebec7d5bd14f71427d1e84f3dd0314c0f7b2291e5b200ac8c7c3b92560405160405180910390a45050565b6000610eb282610d7a565b610ef1576040517f08c379a0000000000000000000000000000000000000000000000000000000008152600401610ee890612138565b60405180910390fd5b6000610efc83610725565b90508073ffffffffffffffffffffffffffffffffffffffff168473ffffffffffffffffffffffffffffffffffffffff161480610f6b57508373ffffffffffffffffffffffffffffffffffffffff16610f53846104a4565b73ffffffffffffffffffffffffffffffffffffffff16145b80610f7c5750610f7b8185610c56565b5b91505092915050565b8273ffffffffffffffffffffffffffffffffffffffff16610fa582610725565b73ffffffffffffffffffffffffffffffffffffffff1614610ffb576040517f08c379a0000000000000000000000000000000000000000000000000000000008152600401610ff290612238565b60405180910390fd5b600073ffffffffffffffffffffffffffffffffffffffff168273ffffffffffffffffffffffffffffffffffffffff16141561106b576040517f08c379a0000000000000000000000000000000000000000000000000000000008152600401611062906120f8565b60405180910390fd5b611076838383611561565b611081600082610dee565b6001600360008573ffffffffffffffffffffffffffffffffffffffff1673ffffffffffffffffffffffffffffffffffffffff16815260200190815260200160002060008282546110d19190612424565b925050819055506001600360008473ffffffffffffffffffffffffffffffffffffffff1673ffffffffffffffffffffffffffffffffffffffff1681526020019081526020016000206000828254611128919061239d565b92505081905550816002600083815260200190815260200160002060006101000a81548173ffffffffffffffffffffffffffffffffffffffff021916908373ffffffffffffffffffffffffffffffffffffffff160217905550808273ffffffffffffffffffffffffffffffffffffffff168473ffffffffffffffffffffffffffffffffffffffff167fddf252ad1be2c89b69c2b068fc378daa952ba7f163c4a11628f55a4df523b3ef60405160405180910390a4505050565b6001816000016000828254019250508190555050565b600081600001549050919050565b600073ffffffffffffffffffffffffffffffffffffffff168273ffffffffffffffffffffffffffffffffffffffff161415611275576040517f08c379a000000000000000000000000000000000000000000000000000000000815260040161126c906121d8565b60405180910390fd5b61127e81610d7a565b156112be576040517f08c379a00000000000000000000000000000000000000000000000000000000081526004016112b5906120d8565b60405180910390fd5b6112ca60008383611561565b6001600360008473ffffffffffffffffffffffffffffffffffffffff1673ffffffffffffffffffffffffffffffffffffffff168152602001908152602001600020600082825461131a919061239d565b92505081905550816002600083815260200190815260200160002060006101000a81548173ffffffffffffffffffffffffffffffffffffffff021916908373ffffffffffffffffffffffffffffffffffffffff160217905550808273ffffffffffffffffffffffffffffffffffffffff16600073ffffffffffffffffffffffffffffffffffffffff167fddf252ad1be2c89b69c2b068fc378daa952ba7f163c4a11628f55a4df523b3ef60405160405180910390a45050565b6113dc82610d7a565b61141b576040517f08c379a0000000000000000000000000000000000000000000000000000000008152600401611412906121b8565b60405180910390fd5b80600660008481526020019081526020016000209080519060200190611442929190611871565b505050565b611452848484610f85565b61145e84848484611566565b61149d576040517f08c379a0000000000000000000000000000000000000000000000000000000008152600401611494906120b8565b60405180910390fd5b50505050565b606060405180602001604052806000815250905090565b60606114c582610d7a565b611504576040517f08c379a00000000000000000000000000000000000000000000000000000000081526004016114fb90612258565b60405180910390fd5b600061150e6114a3565b9050600081511161152e5760405180602001604052806000815250611559565b80611538846116fd565b604051602001611549929190611ff0565b6040516020818303038152906040525b915050919050565b505050565b60006115878473ffffffffffffffffffffffffffffffffffffffff1661185e565b156116f0578373ffffffffffffffffffffffffffffffffffffffff1663150b7a026115b0610de6565b8786866040518563ffffffff1660e01b81526004016115d2949392919061202f565b602060405180830381600087803b1580156115ec57600080fd5b505af192505050801561161d57506040513d601f19601f8201168201806040525081019061161a9190611c4d565b60015b6116a0573d806000811461164d576040519150601f19603f3d011682016040523d82523d6000602084013e611652565b606091505b50600081511415611698576040517f08c379a000000000000000000000000000000000000000000000000000000000815260040161168f906120b8565b60405180910390fd5b805181602001fd5b63150b7a0260e01b7bffffffffffffffffffffffffffffffffffffffffffffffffffffffff1916817bffffffffffffffffffffffffffffffffffffffffffffffffffffffff1916149150506116f5565b600190505b949350505050565b60606000821415611745576040518060400160405280600181526020017f30000000000000000000000000000000000000000000000000000000000000008152509050611859565b600082905060005b6000821461177757808061176090612571565b915050600a8261177091906123f3565b915061174d565b60008167ffffffffffffffff811115611793576117926126a7565b5b6040519080825280601f01601f1916602001820160405280156117c55781602001600182028036833780820191505090505b5090505b60008514611852576001826117de9190612424565b9150600a856117ed91906125ba565b60306117f9919061239d565b60f81b81838151811061180f5761180e612678565b5b60200101907effffffffffffffffffffffffffffffffffffffffffffffffffffffffffffff1916908160001a905350600a8561184b91906123f3565b94506117c9565b8093505050505b919050565b600080823b905060008111915050919050565b82805461187d9061250e565b90600052602060002090601f01602090048101928261189f57600085556118e6565b82601f106118b857805160ff19168380011785556118e6565b828001600101855582156118e6579182015b828111156118e55782518255916020019190600101906118ca565b5b5090506118f391906118f7565b5090565b5b808211156119105760008160009055506001016118f8565b5090565b6000611927611922846122f8565b6122d3565b905082815260208101848484011115611943576119426126db565b5b61194e8482856124cc565b509392505050565b600061196961196484612329565b6122d3565b905082815260208101848484011115611985576119846126db565b5b6119908482856124cc565b509392505050565b6000813590506119a781612b79565b92915050565b6000813590506119bc81612b90565b92915050565b6000813590506119d181612ba7565b92915050565b6000815190506119e681612ba7565b92915050565b600082601f830112611a0157611a006126d6565b5b8135611a11848260208601611914565b91505092915050565b600082601f830112611a2f57611a2e6126d6565b5b8135611a3f848260208601611956565b91505092915050565b600081359050611a5781612bbe565b92915050565b600060208284031215611a7357611a726126e5565b5b6000611a8184828501611998565b91505092915050565b60008060408385031215611aa157611aa06126e5565b5b6000611aaf85828601611998565b9250506020611ac085828601611998565b9150509250929050565b600080600060608486031215611ae357611ae26126e5565b5b6000611af186828701611998565b9350506020611b0286828701611998565b9250506040611b1386828701611a48565b9150509250925092565b60008060008060808587031215611b3757611b366126e5565b5b6000611b4587828801611998565b9450506020611b5687828801611998565b9350506040611b6787828801611a48565b925050606085013567ffffffffffffffff811115611b8857611b876126e0565b5b611b94878288016119ec565b91505092959194509250565b60008060408385031215611bb757611bb66126e5565b5b6000611bc585828601611998565b9250506020611bd6858286016119ad565b9150509250929050565b60008060408385031215611bf757611bf66126e5565b5b6000611c0585828601611998565b9250506020611c1685828601611a48565b9150509250929050565b600060208284031215611c3657611c356126e5565b5b6000611c44848285016119c2565b91505092915050565b600060208284031215611c6357611c626126e5565b5b6000611c71848285016119d7565b91505092915050565b600060208284031215611c9057611c8f6126e5565b5b600082013567ffffffffffffffff811115611cae57611cad6126e0565b5b611cba84828501611a1a565b91505092915050565b600060208284031215611cd957611cd86126e5565b5b6000611ce784828501611a48565b91505092915050565b611cf981612458565b82525050565b611d088161246a565b82525050565b6000611d198261235a565b611d238185612370565b9350611d338185602086016124db565b611d3c816126ea565b840191505092915050565b6000611d5282612365565b611d5c8185612381565b9350611d6c8185602086016124db565b611d75816126ea565b840191505092915050565b6000611d8b82612365565b611d958185612392565b9350611da58185602086016124db565b80840191505092915050565b6000611dbe603283612381565b9150611dc9826126fb565b604082019050919050565b6000611de1601c83612381565b9150611dec8261274a565b602082019050919050565b6000611e04602483612381565b9150611e0f82612773565b604082019050919050565b6000611e27601983612381565b9150611e32826127c2565b602082019050919050565b6000611e4a602c83612381565b9150611e55826127eb565b604082019050919050565b6000611e6d603883612381565b9150611e788261283a565b604082019050919050565b6000611e90602a83612381565b9150611e9b82612889565b604082019050919050565b6000611eb3602983612381565b9150611ebe826128d8565b604082019050919050565b6000611ed6602e83612381565b9150611ee182612927565b604082019050919050565b6000611ef9602083612381565b9150611f0482612976565b602082019050919050565b6000611f1c603183612381565b9150611f278261299f565b604082019050919050565b6000611f3f602c83612381565b9150611f4a826129ee565b604082019050919050565b6000611f62602983612381565b9150611f6d82612a3d565b604082019050919050565b6000611f85602f83612381565b9150611f9082612a8c565b604082019050919050565b6000611fa8602183612381565b9150611fb382612adb565b604082019050919050565b6000611fcb603183612381565b9150611fd682612b2a565b604082019050919050565b611fea816124c2565b82525050565b6000611ffc8285611d80565b91506120088284611d80565b91508190509392505050565b60006020820190506120296000830184611cf0565b92915050565b60006080820190506120446000830187611cf0565b6120516020830186611cf0565b61205e6040830185611fe1565b81810360608301526120708184611d0e565b905095945050505050565b60006020820190506120906000830184611cff565b92915050565b600060208201905081810360008301526120b08184611d47565b905092915050565b600060208201905081810360008301526120d181611db1565b9050919050565b600060208201905081810360008301526120f181611dd4565b9050919050565b6000602082019050818103600083015261211181611df7565b9050919050565b6000602082019050818103600083015261213181611e1a565b9050919050565b6000602082019050818103600083015261215181611e3d565b9050919050565b6000602082019050818103600083015261217181611e60565b9050919050565b6000602082019050818103600083015261219181611e83565b9050919050565b600060208201905081810360008301526121b181611ea6565b9050919050565b600060208201905081810360008301526121d181611ec9565b9050919050565b600060208201905081810360008301526121f181611eec565b9050919050565b6000602082019050818103600083015261221181611f0f565b9050919050565b6000602082019050818103600083015261223181611f32565b9050919050565b6000602082019050818103600083015261225181611f55565b9050919050565b6000602082019050818103600083015261227181611f78565b9050919050565b6000602082019050818103600083015261229181611f9b565b9050919050565b600060208201905081810360008301526122b181611fbe565b9050919050565b60006020820190506122cd6000830184611fe1565b92915050565b60006122dd6122ee565b90506122e98282612540565b919050565b6000604051905090565b600067ffffffffffffffff821115612313576123126126a7565b5b61231c826126ea565b9050602081019050919050565b600067ffffffffffffffff821115612344576123436126a7565b5b61234d826126ea565b9050602081019050919050565b600081519050919050565b600081519050919050565b600082825260208201905092915050565b600082825260208201905092915050565b600081905092915050565b60006123a8826124c2565b91506123b3836124c2565b9250827fffffffffffffffffffffffffffffffffffffffffffffffffffffffffffffffff038211156123e8576123e76125eb565b5b828201905092915050565b60006123fe826124c2565b9150612409836124c2565b9250826124195761241861261a565b5b828204905092915050565b600061242f826124c2565b915061243a836124c2565b92508282101561244d5761244c6125eb565b5b828203905092915050565b6000612463826124a2565b9050919050565b60008115159050919050565b60007fffffffff0000000000000000000000000000000000000000000000000000000082169050919050565b600073ffffffffffffffffffffffffffffffffffffffff82169050919050565b6000819050919050565b82818337600083830152505050565b60005b838110156124f95780820151818401526020810190506124de565b83811115612508576000848401525b50505050565b6000600282049050600182168061252657607f821691505b6020821081141561253a57612539612649565b5b50919050565b612549826126ea565b810181811067ffffffffffffffff82111715612568576125676126a7565b5b80604052505050565b600061257c826124c2565b91507fffffffffffffffffffffffffffffffffffffffffffffffffffffffffffffffff8214156125af576125ae6125eb565b5b600182019050919050565b60006125c5826124c2565b91506125d0836124c2565b9250826125e0576125df61261a565b5b828206905092915050565b7f4e487b7100000000000000000000000000000000000000000000000000000000600052601160045260246000fd5b7f4e487b7100000000000000000000000000000000000000000000000000000000600052601260045260246000fd5b7f4e487b7100000000000000000000000000000000000000000000000000000000600052602260045260246000fd5b7f4e487b7100000000000000000000000000000000000000000000000000000000600052603260045260246000fd5b7f4e487b7100000000000000000000000000000000000000000000000000000000600052604160045260246000fd5b600080fd5b600080fd5b600080fd5b600080fd5b6000601f19601f8301169050919050565b7f4552433732313a207472616e7366657220746f206e6f6e20455243373231526560008201527f63656976657220696d706c656d656e7465720000000000000000000000000000602082015250565b7f4552433732313a20746f6b656e20616c7265616479206d696e74656400000000600082015250565b7f4552433732313a207472616e7366657220746f20746865207a65726f2061646460008201527f7265737300000000000000000000000000000000000000000000000000000000602082015250565b7f4552433732313a20617070726f766520746f2063616c6c657200000000000000600082015250565b7f4552433732313a206f70657261746f7220717565727920666f72206e6f6e657860008201527f697374656e7420746f6b656e0000000000000000000000000000000000000000602082015250565b7f4552433732313a20617070726f76652063616c6c6572206973206e6f74206f7760008201527f6e6572206e6f7220617070726f76656420666f7220616c6c0000000000000000602082015250565b7f4552433732313a2062616c616e636520717565727920666f7220746865207a6560008201527f726f206164647265737300000000000000000000000000000000000000000000602082015250565b7f4552433732313a206f776e657220717565727920666f72206e6f6e657869737460008201527f656e7420746f6b656e0000000000000000000000000000000000000000000000602082015250565b7f45524337323155524953746f726167653a2055524920736574206f66206e6f6e60008201527f6578697374656e7420746f6b656e000000000000000000000000000000000000602082015250565b7f4552433732313a206d696e7420746f20746865207a65726f2061646472657373600082015250565b7f45524337323155524953746f726167653a2055524920717565727920666f722060008201527f6e6f6e6578697374656e7420746f6b656e000000000000000000000000000000602082015250565b7f4552433732313a20617070726f76656420717565727920666f72206e6f6e657860008201527f697374656e7420746f6b656e0000000000000000000000000000000000000000602082015250565b7f4552433732313a207472616e73666572206f6620746f6b656e2074686174206960008201527f73206e6f74206f776e0000000000000000000000000000000000000000000000602082015250565b7f4552433732314d657461646174613a2055524920717565727920666f72206e6f60008201527f6e6578697374656e7420746f6b656e0000000000000000000000000000000000602082015250565b7f4552433732313a20617070726f76616c20746f2063757272656e74206f776e6560008201527f7200000000000000000000000000000000000000000000000000000000000000602082015250565b7f4552433732313a207472616e736665722063616c6c6572206973206e6f74206f60008201527f776e6572206e6f7220617070726f766564000000000000000000000000000000602082015250565b612b8281612458565b8114612b8d57600080fd5b50565b612b998161246a565b8114612ba457600080fd5b50565b612bb081612476565b8114612bbb57600080fd5b50565b612bc7816124c2565b8114612bd257600080fd5b5056fea2646970667358221220dce4c35de468b8c74811e2c553b8e2c26aa3f58943ba2dfe4774a6e511429dc564736f6c63430008050033",
  "linkReferences": {},
  "deployedLinkReferences": {}
}