{
  "_format": "hh-sol-artifact-1",
  "contractName": "NFT",
  "sourceName": "contracts/NFT.sol",
  "abi": [
    {
      "inputs": [
        {
          "internalType": "address",
          "name": "_marketAddress",
          "type": "address"
        }
      ],
      "stateMutability": "nonpayable",
      "type": "constructor"
    },
    {
      "anonymous": false,
      "inputs": [
        {
          "indexed": true,
          "internalType": "address",
          "name": "owner",
          "type": "address"
        },
        {
          "indexed": true,
          "internalType": "address",
          "name": "approved",
          "type": "address"
        },
        {
          "indexed": true,
          "internalType": "uint256",
          "name": "tokenId",
          "type": "uint256"
        }
      ],
      "name": "Approval",
      "type": "event"
    },
    {
      "anonymous": false,
      "inputs": [
        {
          "indexed": true,
          "internalType": "address",
          "name": "owner",
          "type": "address"
        },
        {
          "indexed": true,
          "internalType": "address",
          "name": "operator",
          "type": "address"
        },
        {
          "indexed": false,
          "internalType": "bool",
          "name": "approved",
          "type": "bool"
        }
      ],
      "name": "ApprovalForAll",
      "type": "event"
    },
    {
      "anonymous": false,
      "inputs": [
        {
          "indexed": true,
          "internalType": "address",
          "name": "from",
          "type": "address"
        },
        {
          "indexed": true,
          "internalType": "address",
          "name": "to",
          "type": "address"
        },
        {
          "indexed": true,
          "internalType": "uint256",
          "name": "tokenId",
          "type": "uint256"
        }
      ],
      "name": "Transfer",
      "type": "event"
    },
    {
      "inputs": [
        {
          "internalType": "address",
          "name": "to",
          "type": "address"
        },
        {
          "internalType": "uint256",
          "name": "tokenId",
          "type": "uint256"
        }
      ],
      "name": "approve",
      "outputs": [],
      "stateMutability": "nonpayable",
      "type": "function"
    },
    {
      "inputs": [
        {
          "internalType": "address",
          "name": "owner",
          "type": "address"
        }
      ],
      "name": "balanceOf",
      "outputs": [
        {
          "internalType": "uint256",
          "name": "",
          "type": "uint256"
        }
      ],
      "stateMutability": "view",
      "type": "function"
    },
    {
      "inputs": [],
      "name": "contractAddress",
      "outputs": [
        {
          "internalType": "address",
          "name": "",
          "type": "address"
        }
      ],
      "stateMutability": "view",
      "type": "function"
    },
    {
      "inputs": [
        {
          "internalType": "string",
          "name": "_tokenURI",
          "type": "string"
        }
      ],
      "name": "createToken",
      "outputs": [
        {
          "internalType": "uint256",
          "name": "",
          "type": "uint256"
        }
      ],
      "stateMutability": "nonpayable",
      "type": "function"
    },
    {
      "inputs": [
        {
          "internalType": "uint256",
          "name": "tokenId",
          "type": "uint256"
        }
      ],
      "name": "getApproved",
      "outputs": [
        {
          "internalType": "address",
          "name": "",
          "type": "address"
        }
      ],
      "stateMutability": "view",
      "type": "function"
    },
    {
      "inputs": [
        {
          "internalType": "address",
          "name": "owner",
          "type": "address"
        },
        {
          "internalType": "address",
          "name": "operator",
          "type": "address"
        }
      ],
      "name": "isApprovedForAll",
      "outputs": [
        {
          "internalType": "bool",
          "name": "",
          "type": "bool"
        }
      ],
      "stateMutability": "view",
      "type": "function"
    },
    {
      "inputs": [],
      "name": "name",
      "outputs": [
        {
          "internalType": "string",
          "name": "",
          "type": "string"
        }
      ],
      "stateMutability": "view",
      "type": "function"
    },
    {
      "inputs": [
        {
          "internalType": "uint256",
          "name": "tokenId",
          "type": "uint256"
        }
      ],
      "name": "ownerOf",
      "outputs": [
        {
          "internalType": "address",
          "name": "",
          "type": "address"
        }
      ],
      "stateMutability": "view",
      "type": "function"
    },
    {
      "inputs": [
        {
          "internalType": "address",
          "name": "from",
          "type": "address"
        },
        {
          "internalType": "address",
          "name": "to",
          "type": "address"
        },
        {
          "internalType": "uint256",
          "name": "tokenId",
          "type": "uint256"
        }
      ],
      "name": "safeTransferFrom",
      "outputs": [],
      "stateMutability": "nonpayable",
      "type": "function"
    },
    {
      "inputs": [
        {
          "internalType": "address",
          "name": "from",
          "type": "address"
        },
        {
          "internalType": "address",
          "name": "to",
          "type": "address"
        },
        {
          "internalType": "uint256",
          "name": "tokenId",
          "type": "uint256"
        },
        {
          "internalType": "bytes",
          "name": "_data",
          "type": "bytes"
        }
      ],
      "name": "safeTransferFrom",
      "outputs": [],
      "stateMutability": "nonpayable",
      "type": "function"
    },
    {
      "inputs": [
        {
          "internalType": "address",
          "name": "operator",
          "type": "address"
        },
        {
          "internalType": "bool",
          "name": "approved",
          "type": "bool"
        }
      ],
      "name": "setApprovalForAll",
      "outputs": [],
      "stateMutability": "nonpayable",
      "type": "function"
    },
    {
      "inputs": [
        {
          "internalType": "bytes4",
          "name": "interfaceId",
          "type": "bytes4"
        }
      ],
      "name": "supportsInterface",
      "outputs": [
        {
          "internalType": "bool",
          "name": "",
          "type": "bool"
        }
      ],
      "stateMutability": "view",
      "type": "function"
    },
    {
      "inputs": [],
      "name": "symbol",
      "outputs": [
        {
          "internalType": "string",
          "name": "",
          "type": "string"
        }
      ],
      "stateMutability": "view",
      "type": "function"
    },
    {
      "inputs": [
        {
          "internalType": "uint256",
          "name": "tokenId",
          "type": "uint256"
        }
      ],
      "name": "tokenURI",
      "outputs": [
        {
          "internalType": "string",
          "name": "",
          "type": "string"
        }
      ],
      "stateMutability": "view",
      "type": "function"
    },
    {
      "inputs": [
        {
          "internalType": "address",
          "name": "from",
          "type": "address"
        },
        {
          "internalType": "address",
          "name": "to",
          "type": "address"
        },
        {
          "internalType": "uint256",
          "name": "tokenId",
          "type": "uint256"
        }
      ],
      "name": "transferFrom",
      "outputs": [],
      "stateMutability": "nonpayable",
      "type": "function"
    }
  ],
  "bytecode": "0x60806040523480156200001157600080fd5b5060405162002ebe38038062002ebe8339818101604052810190620000379190620001e6565b6040518060400160405280600d81526020017f454e5445525441494e4d454e54000000000000000000000000000000000000008152506040518060400160405280600381526020017f45545400000000000000000000000000000000000000000000000000000000008152508160009080519060200190620000bb9291906200011f565b508060019080519060200190620000d49291906200011f565b50505080600860006101000a81548173ffffffffffffffffffffffffffffffffffffffff021916908373ffffffffffffffffffffffffffffffffffffffff16021790555050620002d0565b8280546200012d906200024c565b90600052602060002090601f0160209004810192826200015157600085556200019d565b82601f106200016c57805160ff19168380011785556200019d565b828001600101855582156200019d579182015b828111156200019c5782518255916020019190600101906200017f565b5b509050620001ac9190620001b0565b5090565b5b80821115620001cb576000816000905550600101620001b1565b5090565b600081519050620001e081620002b6565b92915050565b600060208284031215620001ff57620001fe620002b1565b5b60006200020f84828501620001cf565b91505092915050565b600062000225826200022c565b9050919050565b600073ffffffffffffffffffffffffffffffffffffffff82169050919050565b600060028204905060018216806200026557607f821691505b602082108114156200027c576200027b62000282565b5b50919050565b7f4e487b7100000000000000000000000000000000000000000000000000000000600052602260045260246000fd5b600080fd5b620002c18162000218565b8114620002cd57600080fd5b50565b612bde80620002e06000396000f3fe608060405234801561001057600080fd5b50600436106100f55760003560e01c80636352211e11610097578063b88d4fde11610066578063b88d4fde14610296578063c87b56dd146102b2578063e985e9c5146102e2578063f6b4dfb414610312576100f5565b80636352211e146101fc57806370a082311461022c57806395d89b411461025c578063a22cb4651461027a576100f5565b8063095ea7b3116100d3578063095ea7b31461017857806323b872dd1461019457806342842e0e146101b057806345576f94146101cc576100f5565b806301ffc9a7146100fa57806306fdde031461012a578063081812fc14610148575b600080fd5b610114600480360381019061010f9190611bf3565b610330565b604051610121919061204e565b60405180910390f35b610132610412565b60405161013f9190612069565b60405180910390f35b610162600480360381019061015d9190611c96565b6104a4565b60405161016f9190611fe7565b60405180910390f35b610192600480360381019061018d9190611bb3565b610529565b005b6101ae60048036038101906101a99190611a9d565b610641565b005b6101ca60048036038101906101c59190611a9d565b6106a1565b005b6101e660048036038101906101e19190611c4d565b6106c1565b6040516101f3919061228b565b60405180910390f35b61021660048036038101906102119190611c96565b6106f8565b6040516102239190611fe7565b60405180910390f35b61024660048036038101906102419190611a30565b6107aa565b604051610253919061228b565b60405180910390f35b610264610862565b6040516102719190612069565b60405180910390f35b610294600480360381019061028f9190611b73565b6108f4565b005b6102b060048036038101906102ab9190611af0565b610a75565b005b6102cc60048036038101906102c79190611c96565b610ad7565b6040516102d99190612069565b60405180910390f35b6102fc60048036038101906102f79190611a5d565b610c29565b604051610309919061204e565b60405180910390f35b61031a610cbd565b6040516103279190611fe7565b60405180910390f35b60007f80ac58cd000000000000000000000000000000000000000000000000000000007bffffffffffffffffffffffffffffffffffffffffffffffffffffffff1916827bffffffffffffffffffffffffffffffffffffffffffffffffffffffff191614806103fb57507f5b5e139f000000000000000000000000000000000000000000000000000000007bffffffffffffffffffffffffffffffffffffffffffffffffffffffff1916827bffffffffffffffffffffffffffffffffffffffffffffffffffffffff1916145b8061040b575061040a82610ce3565b5b9050919050565b606060008054610421906124e1565b80601f016020809104026020016040519081016040528092919081815260200182805461044d906124e1565b801561049a5780601f1061046f5761010080835404028352916020019161049a565b820191906000526020600020905b81548152906001019060200180831161047d57829003601f168201915b5050505050905090565b60006104af82610d4d565b6104ee576040517f08c379a00000000000000000000000000000000000000000000000000000000081526004016104e5906121eb565b60405180910390fd5b6004600083815260200190815260200160002060009054906101000a900473ffffffffffffffffffffffffffffffffffffffff169050919050565b6000610534826106f8565b90508073ffffffffffffffffffffffffffffffffffffffff168373ffffffffffffffffffffffffffffffffffffffff1614156105a5576040517f08c379a000000000000000000000000000000000000000000000000000000000815260040161059c9061224b565b60405180910390fd5b8073ffffffffffffffffffffffffffffffffffffffff166105c4610db9565b73ffffffffffffffffffffffffffffffffffffffff1614806105f357506105f2816105ed610db9565b610c29565b5b610632576040517f08c379a00000000000000000000000000000000000000000000000000000000081526004016106299061212b565b60405180910390fd5b61063c8383610dc1565b505050565b61065261064c610db9565b82610e7a565b610691576040517f08c379a00000000000000000000000000000000000000000000000000000000081526004016106889061226b565b60405180910390fd5b61069c838383610f58565b505050565b6106bc83838360405180602001604052806000815250610a75565b505050565b60006106cd60076111b4565b60006106d960076111ca565b90506106e533826111d8565b6106ef81846113a6565b80915050919050565b6000806002600084815260200190815260200160002060009054906101000a900473ffffffffffffffffffffffffffffffffffffffff169050600073ffffffffffffffffffffffffffffffffffffffff168173ffffffffffffffffffffffffffffffffffffffff1614156107a1576040517f08c379a00000000000000000000000000000000000000000000000000000000081526004016107989061216b565b60405180910390fd5b80915050919050565b60008073ffffffffffffffffffffffffffffffffffffffff168273ffffffffffffffffffffffffffffffffffffffff16141561081b576040517f08c379a00000000000000000000000000000000000000000000000000000000081526004016108129061214b565b60405180910390fd5b600360008373ffffffffffffffffffffffffffffffffffffffff1673ffffffffffffffffffffffffffffffffffffffff168152602001908152602001600020549050919050565b606060018054610871906124e1565b80601f016020809104026020016040519081016040528092919081815260200182805461089d906124e1565b80156108ea5780601f106108bf576101008083540402835291602001916108ea565b820191906000526020600020905b8154815290600101906020018083116108cd57829003601f168201915b5050505050905090565b6108fc610db9565b73ffffffffffffffffffffffffffffffffffffffff168273ffffffffffffffffffffffffffffffffffffffff16141561096a576040517f08c379a0000000000000000000000000000000000000000000000000000000008152600401610961906120eb565b60405180910390fd5b8060056000610977610db9565b73ffffffffffffffffffffffffffffffffffffffff1673ffffffffffffffffffffffffffffffffffffffff16815260200190815260200160002060008473ffffffffffffffffffffffffffffffffffffffff1673ffffffffffffffffffffffffffffffffffffffff16815260200190815260200160002060006101000a81548160ff0219169083151502179055508173ffffffffffffffffffffffffffffffffffffffff16610a24610db9565b73ffffffffffffffffffffffffffffffffffffffff167f17307eab39ab6107e8899845ad3d59bd9653f200f220920489ca2b5937696c3183604051610a69919061204e565b60405180910390a35050565b610a86610a80610db9565b83610e7a565b610ac5576040517f08c379a0000000000000000000000000000000000000000000000000000000008152600401610abc9061226b565b60405180910390fd5b610ad18484848461141a565b50505050565b6060610ae282610d4d565b610b21576040517f08c379a0000000000000000000000000000000000000000000000000000000008152600401610b18906121cb565b60405180910390fd5b6000600660008481526020019081526020016000208054610b41906124e1565b80601f0160208091040260200160405190810160405280929190818152602001828054610b6d906124e1565b8015610bba5780601f10610b8f57610100808354040283529160200191610bba565b820191906000526020600020905b815481529060010190602001808311610b9d57829003601f168201915b505050505090506000610bcb611476565b9050600081511415610be1578192505050610c24565b600082511115610c16578082604051602001610bfe929190611fc3565b60405160208183030381529060405292505050610c24565b610c1f8461148d565b925050505b919050565b6000600560008473ffffffffffffffffffffffffffffffffffffffff1673ffffffffffffffffffffffffffffffffffffffff16815260200190815260200160002060008373ffffffffffffffffffffffffffffffffffffffff1673ffffffffffffffffffffffffffffffffffffffff16815260200190815260200160002060009054906101000a900460ff16905092915050565b600860009054906101000a900473ffffffffffffffffffffffffffffffffffffffff1681565b60007f01ffc9a7000000000000000000000000000000000000000000000000000000007bffffffffffffffffffffffffffffffffffffffffffffffffffffffff1916827bffffffffffffffffffffffffffffffffffffffffffffffffffffffff1916149050919050565b60008073ffffffffffffffffffffffffffffffffffffffff166002600084815260200190815260200160002060009054906101000a900473ffffffffffffffffffffffffffffffffffffffff1673ffffffffffffffffffffffffffffffffffffffff1614159050919050565b600033905090565b816004600083815260200190815260200160002060006101000a81548173ffffffffffffffffffffffffffffffffffffffff021916908373ffffffffffffffffffffffffffffffffffffffff160217905550808273ffffffffffffffffffffffffffffffffffffffff16610e34836106f8565b73ffffffffffffffffffffffffffffffffffffffff167f8c5be1e5ebec7d5bd14f71427d1e84f3dd0314c0f7b2291e5b200ac8c7c3b92560405160405180910390a45050565b6000610e8582610d4d565b610ec4576040517f08c379a0000000000000000000000000000000000000000000000000000000008152600401610ebb9061210b565b60405180910390fd5b6000610ecf836106f8565b90508073ffffffffffffffffffffffffffffffffffffffff168473ffffffffffffffffffffffffffffffffffffffff161480610f3e57508373ffffffffffffffffffffffffffffffffffffffff16610f26846104a4565b73ffffffffffffffffffffffffffffffffffffffff16145b80610f4f5750610f4e8185610c29565b5b91505092915050565b8273ffffffffffffffffffffffffffffffffffffffff16610f78826106f8565b73ffffffffffffffffffffffffffffffffffffffff1614610fce576040517f08c379a0000000000000000000000000000000000000000000000000000000008152600401610fc59061220b565b60405180910390fd5b600073ffffffffffffffffffffffffffffffffffffffff168273ffffffffffffffffffffffffffffffffffffffff16141561103e576040517f08c379a0000000000000000000000000000000000000000000000000000000008152600401611035906120cb565b60405180910390fd5b611049838383611534565b611054600082610dc1565b6001600360008573ffffffffffffffffffffffffffffffffffffffff1673ffffffffffffffffffffffffffffffffffffffff16815260200190815260200160002060008282546110a491906123f7565b925050819055506001600360008473ffffffffffffffffffffffffffffffffffffffff1673ffffffffffffffffffffffffffffffffffffffff16815260200190815260200160002060008282546110fb9190612370565b92505081905550816002600083815260200190815260200160002060006101000a81548173ffffffffffffffffffffffffffffffffffffffff021916908373ffffffffffffffffffffffffffffffffffffffff160217905550808273ffffffffffffffffffffffffffffffffffffffff168473ffffffffffffffffffffffffffffffffffffffff167fddf252ad1be2c89b69c2b068fc378daa952ba7f163c4a11628f55a4df523b3ef60405160405180910390a4505050565b6001816000016000828254019250508190555050565b600081600001549050919050565b600073ffffffffffffffffffffffffffffffffffffffff168273ffffffffffffffffffffffffffffffffffffffff161415611248576040517f08c379a000000000000000000000000000000000000000000000000000000000815260040161123f906121ab565b60405180910390fd5b61125181610d4d565b15611291576040517f08c379a0000000000000000000000000000000000000000000000000000000008152600401611288906120ab565b60405180910390fd5b61129d60008383611534565b6001600360008473ffffffffffffffffffffffffffffffffffffffff1673ffffffffffffffffffffffffffffffffffffffff16815260200190815260200160002060008282546112ed9190612370565b92505081905550816002600083815260200190815260200160002060006101000a81548173ffffffffffffffffffffffffffffffffffffffff021916908373ffffffffffffffffffffffffffffffffffffffff160217905550808273ffffffffffffffffffffffffffffffffffffffff16600073ffffffffffffffffffffffffffffffffffffffff167fddf252ad1be2c89b69c2b068fc378daa952ba7f163c4a11628f55a4df523b3ef60405160405180910390a45050565b6113af82610d4d565b6113ee576040517f08c379a00000000000000000000000000000000000000000000000000000000081526004016113e59061218b565b60405180910390fd5b80600660008481526020019081526020016000209080519060200190611415929190611844565b505050565b611425848484610f58565b61143184848484611539565b611470576040517f08c379a00000000000000000000000000000000000000000000000000000000081526004016114679061208b565b60405180910390fd5b50505050565b606060405180602001604052806000815250905090565b606061149882610d4d565b6114d7576040517f08c379a00000000000000000000000000000000000000000000000000000000081526004016114ce9061222b565b60405180910390fd5b60006114e1611476565b90506000815111611501576040518060200160405280600081525061152c565b8061150b846116d0565b60405160200161151c929190611fc3565b6040516020818303038152906040525b915050919050565b505050565b600061155a8473ffffffffffffffffffffffffffffffffffffffff16611831565b156116c3578373ffffffffffffffffffffffffffffffffffffffff1663150b7a02611583610db9565b8786866040518563ffffffff1660e01b81526004016115a59493929190612002565b602060405180830381600087803b1580156115bf57600080fd5b505af19250505080156115f057506040513d601f19601f820116820180604052508101906115ed9190611c20565b60015b611673573d8060008114611620576040519150601f19603f3d011682016040523d82523d6000602084013e611625565b606091505b5060008151141561166b576040517f08c379a00000000000000000000000000000000000000000000000000000000081526004016116629061208b565b60405180910390fd5b805181602001fd5b63150b7a0260e01b7bffffffffffffffffffffffffffffffffffffffffffffffffffffffff1916817bffffffffffffffffffffffffffffffffffffffffffffffffffffffff1916149150506116c8565b600190505b949350505050565b60606000821415611718576040518060400160405280600181526020017f3000000000000000000000000000000000000000000000000000000000000000815250905061182c565b600082905060005b6000821461174a57808061173390612544565b915050600a8261174391906123c6565b9150611720565b60008167ffffffffffffffff8111156117665761176561267a565b5b6040519080825280601f01601f1916602001820160405280156117985781602001600182028036833780820191505090505b5090505b60008514611825576001826117b191906123f7565b9150600a856117c0919061258d565b60306117cc9190612370565b60f81b8183815181106117e2576117e161264b565b5b60200101907effffffffffffffffffffffffffffffffffffffffffffffffffffffffffffff1916908160001a905350600a8561181e91906123c6565b945061179c565b8093505050505b919050565b600080823b905060008111915050919050565b828054611850906124e1565b90600052602060002090601f01602090048101928261187257600085556118b9565b82601f1061188b57805160ff19168380011785556118b9565b828001600101855582156118b9579182015b828111156118b857825182559160200191906001019061189d565b5b5090506118c691906118ca565b5090565b5b808211156118e35760008160009055506001016118cb565b5090565b60006118fa6118f5846122cb565b6122a6565b905082815260208101848484011115611916576119156126ae565b5b61192184828561249f565b509392505050565b600061193c611937846122fc565b6122a6565b905082815260208101848484011115611958576119576126ae565b5b61196384828561249f565b509392505050565b60008135905061197a81612b4c565b92915050565b60008135905061198f81612b63565b92915050565b6000813590506119a481612b7a565b92915050565b6000815190506119b981612b7a565b92915050565b600082601f8301126119d4576119d36126a9565b5b81356119e48482602086016118e7565b91505092915050565b600082601f830112611a0257611a016126a9565b5b8135611a12848260208601611929565b91505092915050565b600081359050611a2a81612b91565b92915050565b600060208284031215611a4657611a456126b8565b5b6000611a548482850161196b565b91505092915050565b60008060408385031215611a7457611a736126b8565b5b6000611a828582860161196b565b9250506020611a938582860161196b565b9150509250929050565b600080600060608486031215611ab657611ab56126b8565b5b6000611ac48682870161196b565b9350506020611ad58682870161196b565b9250506040611ae686828701611a1b565b9150509250925092565b60008060008060808587031215611b0a57611b096126b8565b5b6000611b188782880161196b565b9450506020611b298782880161196b565b9350506040611b3a87828801611a1b565b925050606085013567ffffffffffffffff811115611b5b57611b5a6126b3565b5b611b67878288016119bf565b91505092959194509250565b60008060408385031215611b8a57611b896126b8565b5b6000611b988582860161196b565b9250506020611ba985828601611980565b9150509250929050565b60008060408385031215611bca57611bc96126b8565b5b6000611bd88582860161196b565b9250506020611be985828601611a1b565b9150509250929050565b600060208284031215611c0957611c086126b8565b5b6000611c1784828501611995565b91505092915050565b600060208284031215611c3657611c356126b8565b5b6000611c44848285016119aa565b91505092915050565b600060208284031215611c6357611c626126b8565b5b600082013567ffffffffffffffff811115611c8157611c806126b3565b5b611c8d848285016119ed565b91505092915050565b600060208284031215611cac57611cab6126b8565b5b6000611cba84828501611a1b565b91505092915050565b611ccc8161242b565b82525050565b611cdb8161243d565b82525050565b6000611cec8261232d565b611cf68185612343565b9350611d068185602086016124ae565b611d0f816126bd565b840191505092915050565b6000611d2582612338565b611d2f8185612354565b9350611d3f8185602086016124ae565b611d48816126bd565b840191505092915050565b6000611d5e82612338565b611d688185612365565b9350611d788185602086016124ae565b80840191505092915050565b6000611d91603283612354565b9150611d9c826126ce565b604082019050919050565b6000611db4601c83612354565b9150611dbf8261271d565b602082019050919050565b6000611dd7602483612354565b9150611de282612746565b604082019050919050565b6000611dfa601983612354565b9150611e0582612795565b602082019050919050565b6000611e1d602c83612354565b9150611e28826127be565b604082019050919050565b6000611e40603883612354565b9150611e4b8261280d565b604082019050919050565b6000611e63602a83612354565b9150611e6e8261285c565b604082019050919050565b6000611e86602983612354565b9150611e91826128ab565b604082019050919050565b6000611ea9602e83612354565b9150611eb4826128fa565b604082019050919050565b6000611ecc602083612354565b9150611ed782612949565b602082019050919050565b6000611eef603183612354565b9150611efa82612972565b604082019050919050565b6000611f12602c83612354565b9150611f1d826129c1565b604082019050919050565b6000611f35602983612354565b9150611f4082612a10565b604082019050919050565b6000611f58602f83612354565b9150611f6382612a5f565b604082019050919050565b6000611f7b602183612354565b9150611f8682612aae565b604082019050919050565b6000611f9e603183612354565b9150611fa982612afd565b604082019050919050565b611fbd81612495565b82525050565b6000611fcf8285611d53565b9150611fdb8284611d53565b91508190509392505050565b6000602082019050611ffc6000830184611cc3565b92915050565b60006080820190506120176000830187611cc3565b6120246020830186611cc3565b6120316040830185611fb4565b81810360608301526120438184611ce1565b905095945050505050565b60006020820190506120636000830184611cd2565b92915050565b600060208201905081810360008301526120838184611d1a565b905092915050565b600060208201905081810360008301526120a481611d84565b9050919050565b600060208201905081810360008301526120c481611da7565b9050919050565b600060208201905081810360008301526120e481611dca565b9050919050565b6000602082019050818103600083015261210481611ded565b9050919050565b6000602082019050818103600083015261212481611e10565b9050919050565b6000602082019050818103600083015261214481611e33565b9050919050565b6000602082019050818103600083015261216481611e56565b9050919050565b6000602082019050818103600083015261218481611e79565b9050919050565b600060208201905081810360008301526121a481611e9c565b9050919050565b600060208201905081810360008301526121c481611ebf565b9050919050565b600060208201905081810360008301526121e481611ee2565b9050919050565b6000602082019050818103600083015261220481611f05565b9050919050565b6000602082019050818103600083015261222481611f28565b9050919050565b6000602082019050818103600083015261224481611f4b565b9050919050565b6000602082019050818103600083015261226481611f6e565b9050919050565b6000602082019050818103600083015261228481611f91565b9050919050565b60006020820190506122a06000830184611fb4565b92915050565b60006122b06122c1565b90506122bc8282612513565b919050565b6000604051905090565b600067ffffffffffffffff8211156122e6576122e561267a565b5b6122ef826126bd565b9050602081019050919050565b600067ffffffffffffffff8211156123175761231661267a565b5b612320826126bd565b9050602081019050919050565b600081519050919050565b600081519050919050565b600082825260208201905092915050565b600082825260208201905092915050565b600081905092915050565b600061237b82612495565b915061238683612495565b9250827fffffffffffffffffffffffffffffffffffffffffffffffffffffffffffffffff038211156123bb576123ba6125be565b5b828201905092915050565b60006123d182612495565b91506123dc83612495565b9250826123ec576123eb6125ed565b5b828204905092915050565b600061240282612495565b915061240d83612495565b9250828210156124205761241f6125be565b5b828203905092915050565b600061243682612475565b9050919050565b60008115159050919050565b60007fffffffff0000000000000000000000000000000000000000000000000000000082169050919050565b600073ffffffffffffffffffffffffffffffffffffffff82169050919050565b6000819050919050565b82818337600083830152505050565b60005b838110156124cc5780820151818401526020810190506124b1565b838111156124db576000848401525b50505050565b600060028204905060018216806124f957607f821691505b6020821081141561250d5761250c61261c565b5b50919050565b61251c826126bd565b810181811067ffffffffffffffff8211171561253b5761253a61267a565b5b80604052505050565b600061254f82612495565b91507fffffffffffffffffffffffffffffffffffffffffffffffffffffffffffffffff821415612582576125816125be565b5b600182019050919050565b600061259882612495565b91506125a383612495565b9250826125b3576125b26125ed565b5b828206905092915050565b7f4e487b7100000000000000000000000000000000000000000000000000000000600052601160045260246000fd5b7f4e487b7100000000000000000000000000000000000000000000000000000000600052601260045260246000fd5b7f4e487b7100000000000000000000000000000000000000000000000000000000600052602260045260246000fd5b7f4e487b7100000000000000000000000000000000000000000000000000000000600052603260045260246000fd5b7f4e487b7100000000000000000000000000000000000000000000000000000000600052604160045260246000fd5b600080fd5b600080fd5b600080fd5b600080fd5b6000601f19601f8301169050919050565b7f4552433732313a207472616e7366657220746f206e6f6e20455243373231526560008201527f63656976657220696d706c656d656e7465720000000000000000000000000000602082015250565b7f4552433732313a20746f6b656e20616c7265616479206d696e74656400000000600082015250565b7f4552433732313a207472616e7366657220746f20746865207a65726f2061646460008201527f7265737300000000000000000000000000000000000000000000000000000000602082015250565b7f4552433732313a20617070726f766520746f2063616c6c657200000000000000600082015250565b7f4552433732313a206f70657261746f7220717565727920666f72206e6f6e657860008201527f697374656e7420746f6b656e0000000000000000000000000000000000000000602082015250565b7f4552433732313a20617070726f76652063616c6c6572206973206e6f74206f7760008201527f6e6572206e6f7220617070726f76656420666f7220616c6c0000000000000000602082015250565b7f4552433732313a2062616c616e636520717565727920666f7220746865207a6560008201527f726f206164647265737300000000000000000000000000000000000000000000602082015250565b7f4552433732313a206f776e657220717565727920666f72206e6f6e657869737460008201527f656e7420746f6b656e0000000000000000000000000000000000000000000000602082015250565b7f45524337323155524953746f726167653a2055524920736574206f66206e6f6e60008201527f6578697374656e7420746f6b656e000000000000000000000000000000000000602082015250565b7f4552433732313a206d696e7420746f20746865207a65726f2061646472657373600082015250565b7f45524337323155524953746f726167653a2055524920717565727920666f722060008201527f6e6f6e6578697374656e7420746f6b656e000000000000000000000000000000602082015250565b7f4552433732313a20617070726f76656420717565727920666f72206e6f6e657860008201527f697374656e7420746f6b656e0000000000000000000000000000000000000000602082015250565b7f4552433732313a207472616e73666572206f6620746f6b656e2074686174206960008201527f73206e6f74206f776e0000000000000000000000000000000000000000000000602082015250565b7f4552433732314d657461646174613a2055524920717565727920666f72206e6f60008201527f6e6578697374656e7420746f6b656e0000000000000000000000000000000000602082015250565b7f4552433732313a20617070726f76616c20746f2063757272656e74206f776e6560008201527f7200000000000000000000000000000000000000000000000000000000000000602082015250565b7f4552433732313a207472616e736665722063616c6c6572206973206e6f74206f60008201527f776e6572206e6f7220617070726f766564000000000000000000000000000000602082015250565b612b558161242b565b8114612b6057600080fd5b50565b612b6c8161243d565b8114612b7757600080fd5b50565b612b8381612449565b8114612b8e57600080fd5b50565b612b9a81612495565b8114612ba557600080fd5b5056fea2646970667358221220d5aa934a779eee7a548b89371971fa643eb43f1640f683d64f4a50b43a8d213664736f6c63430008050033",
  "linkReferences": {},
  "deployedLinkReferences": {}
}