{
  "_format": "hh-sol-artifact-1",
  "contractName": "App",
  "sourceName": "contracts/App.sol",
  "abi": [
    {
      "inputs": [],
      "stateMutability": "nonpayable",
      "type": "constructor"
    },
    {
      "inputs": [
        {
          "internalType": "address",
          "name": "_nftContract",
          "type": "address"
        },
        {
          "internalType": "uint256",
          "name": "_amount",
          "type": "uint256"
        },
        {
          "internalType": "uint256",
          "name": "_nftId",
          "type": "uint256"
        }
      ],
      "name": "buyNFT",
      "outputs": [],
      "stateMutability": "payable",
      "type": "function"
    },
    {
      "inputs": [],
      "name": "getLatestPrice",
      "outputs": [
        {
          "internalType": "int256",
          "name": "",
          "type": "int256"
        }
      ],
      "stateMutability": "view",
      "type": "function"
    },
    {
      "inputs": [],
      "name": "getNFTs",
      "outputs": [
        {
          "components": [
            {
              "internalType": "uint256",
              "name": "itemId",
              "type": "uint256"
            },
            {
              "internalType": "address",
              "name": "nftContract",
              "type": "address"
            },
            {
              "internalType": "uint256",
              "name": "tokenId",
              "type": "uint256"
            },
            {
              "internalType": "address payable",
              "name": "owner",
              "type": "address"
            },
            {
              "internalType": "uint256",
              "name": "price",
              "type": "uint256"
            },
            {
              "internalType": "uint256",
              "name": "watchingFee",
              "type": "uint256"
            },
            {
              "internalType": "uint256",
              "name": "viewersCount",
              "type": "uint256"
            },
            {
              "internalType": "address[]",
              "name": "Viewers",
              "type": "address[]"
            }
          ],
          "internalType": "struct App.Item[]",
          "name": "",
          "type": "tuple[]"
        }
      ],
      "stateMutability": "view",
      "type": "function"
    },
    {
      "inputs": [
        {
          "internalType": "address",
          "name": "_nftContract",
          "type": "address"
        },
        {
          "internalType": "uint256",
          "name": "_tokenId",
          "type": "uint256"
        },
        {
          "internalType": "uint256",
          "name": "_price",
          "type": "uint256"
        },
        {
          "internalType": "uint256",
          "name": "_watchingFee",
          "type": "uint256"
        }
      ],
      "name": "mintNFT",
      "outputs": [],
      "stateMutability": "nonpayable",
      "type": "function"
    },
    {
      "inputs": [
        {
          "internalType": "uint256",
          "name": "_itemId",
          "type": "uint256"
        }
      ],
      "name": "payAccessibility",
      "outputs": [],
      "stateMutability": "payable",
      "type": "function"
    }
  ],
  "bytecode": "0x608060405234801561001057600080fd5b506001600081905550739326bfa02add2366b30bacb125260af641031331600260006101000a81548173ffffffffffffffffffffffffffffffffffffffff021916908373ffffffffffffffffffffffffffffffffffffffff1602179055506112288061007d6000396000f3fe60806040526004361061004a5760003560e01c8063227212f21461004f5780632d17da721461007a57806353da6f01146100965780638e15f473146100b2578063bcee96af146100dd575b600080fd5b34801561005b57600080fd5b50610064610106565b6040516100719190610eb8565b60405180910390f35b610094600480360381019061008f9190610b9e565b61034a565b005b6100b060048036038101906100ab9190610ae4565b610443565b005b3480156100be57600080fd5b506100c7610656565b6040516100d49190610eda565b60405180910390f35b3480156100e957600080fd5b5061010460048036038101906100ff9190610b37565b610706565b005b60606000610114600161093f565b905060008167ffffffffffffffff81111561013257610131611139565b5b60405190808252806020026020018201604052801561016b57816020015b610158610963565b8152602001906001900390816101505790505b50905060005b82811015610341576003600060018361018a9190610f98565b815260200190815260200160002060405180610100016040529081600082015481526020016001820160009054906101000a900473ffffffffffffffffffffffffffffffffffffffff1673ffffffffffffffffffffffffffffffffffffffff1673ffffffffffffffffffffffffffffffffffffffff168152602001600282015481526020016003820160009054906101000a900473ffffffffffffffffffffffffffffffffffffffff1673ffffffffffffffffffffffffffffffffffffffff1673ffffffffffffffffffffffffffffffffffffffff1681526020016004820154815260200160058201548152602001600682015481526020016007820180548060200260200160405190810160405280929190818152602001828054801561030757602002820191906000526020600020905b8160009054906101000a900473ffffffffffffffffffffffffffffffffffffffff1673ffffffffffffffffffffffffffffffffffffffff16815260200190600101908083116102bd575b5050505050815250508282815181106103235761032261110a565b5b6020026020010181905250808061033990611092565b915050610171565b50809250505090565b60006003600083815260200190815260200160002090503373ffffffffffffffffffffffffffffffffffffffff168160030160009054906101000a900473ffffffffffffffffffffffffffffffffffffffff1673ffffffffffffffffffffffffffffffffffffffff1614156103be57600080fd5b60018160060160008282546103d39190610f98565b9250508190555080600701339080600181540180825580915050600190039060005260206000200160009091909190916101000a81548173ffffffffffffffffffffffffffffffffffffffff021916908373ffffffffffffffffffffffffffffffffffffffff1602179055505050565b6000600360008381526020019081526020016000209050806004015483146104a0576040517f08c379a000000000000000000000000000000000000000000000000000000000815260040161049790610ef5565b60405180910390fd5b3373ffffffffffffffffffffffffffffffffffffffff168160030160009054906101000a900473ffffffffffffffffffffffffffffffffffffffff1673ffffffffffffffffffffffffffffffffffffffff1614156104fd57600080fd5b8060030160009054906101000a900473ffffffffffffffffffffffffffffffffffffffff1673ffffffffffffffffffffffffffffffffffffffff166108fc849081150290604051600060405180830381858888f19350505050158015610567573d6000803e3d6000fd5b508373ffffffffffffffffffffffffffffffffffffffff166323b872dd8260030160009054906101000a900473ffffffffffffffffffffffffffffffffffffffff1633856040518463ffffffff1660e01b81526004016105c993929190610e81565b600060405180830381600087803b1580156105e357600080fd5b505af11580156105f7573d6000803e3d6000fd5b50505050336003600084815260200190815260200160002060030160006101000a81548173ffffffffffffffffffffffffffffffffffffffff021916908373ffffffffffffffffffffffffffffffffffffffff16021790555050505050565b600080600260009054906101000a900473ffffffffffffffffffffffffffffffffffffffff1673ffffffffffffffffffffffffffffffffffffffff1663feaf968c6040518163ffffffff1660e01b815260040160a06040518083038186803b1580156106c157600080fd5b505afa1580156106d5573d6000803e3d6000fd5b505050506040513d601f19601f820116820180604052508101906106f99190610bcb565b5050509150508091505090565b610710600161094d565b600061071c600161093f565b90506040518061010001604052808281526020018673ffffffffffffffffffffffffffffffffffffffff1681526020018581526020013373ffffffffffffffffffffffffffffffffffffffff16815260200184815260200183815260200160008152602001600067ffffffffffffffff81111561079c5761079b611139565b5b6040519080825280602002602001820160405280156107ca5781602001602082028036833780820191505090505b50815250600360008381526020019081526020016000206000820151816000015560208201518160010160006101000a81548173ffffffffffffffffffffffffffffffffffffffff021916908373ffffffffffffffffffffffffffffffffffffffff1602179055506040820151816002015560608201518160030160006101000a81548173ffffffffffffffffffffffffffffffffffffffff021916908373ffffffffffffffffffffffffffffffffffffffff1602179055506080820151816004015560a0820151816005015560c0820151816006015560e08201518160070190805190602001906108bd9291906109d4565b5090505060036000828152602001908152602001600020600701339080600181540180825580915050600190039060005260206000200160009091909190916101000a81548173ffffffffffffffffffffffffffffffffffffffff021916908373ffffffffffffffffffffffffffffffffffffffff1602179055505050505050565b600081600001549050919050565b6001816000016000828254019250508190555050565b60405180610100016040528060008152602001600073ffffffffffffffffffffffffffffffffffffffff16815260200160008152602001600073ffffffffffffffffffffffffffffffffffffffff168152602001600081526020016000815260200160008152602001606081525090565b828054828255906000526020600020908101928215610a4d579160200282015b82811115610a4c5782518260006101000a81548173ffffffffffffffffffffffffffffffffffffffff021916908373ffffffffffffffffffffffffffffffffffffffff160217905550916020019190600101906109f4565b5b509050610a5a9190610a5e565b5090565b5b80821115610a77576000816000905550600101610a5f565b5090565b600081359050610a8a81611196565b92915050565b600081519050610a9f816111ad565b92915050565b600081359050610ab4816111c4565b92915050565b600081519050610ac9816111c4565b92915050565b600081519050610ade816111db565b92915050565b600080600060608486031215610afd57610afc611168565b5b6000610b0b86828701610a7b565b9350506020610b1c86828701610aa5565b9250506040610b2d86828701610aa5565b9150509250925092565b60008060008060808587031215610b5157610b50611168565b5b6000610b5f87828801610a7b565b9450506020610b7087828801610aa5565b9350506040610b8187828801610aa5565b9250506060610b9287828801610aa5565b91505092959194509250565b600060208284031215610bb457610bb3611168565b5b6000610bc284828501610aa5565b91505092915050565b600080600080600060a08688031215610be757610be6611168565b5b6000610bf588828901610acf565b9550506020610c0688828901610a90565b9450506040610c1788828901610aba565b9350506060610c2888828901610aba565b9250506080610c3988828901610acf565b9150509295509295909350565b6000610c528383610c90565b60208301905092915050565b6000610c6a8383610db3565b905092915050565b610c7b8161105c565b82525050565b610c8a81611000565b82525050565b610c9981610fee565b82525050565b610ca881610fee565b82525050565b6000610cb982610f35565b610cc38185610f65565b9350610cce83610f15565b8060005b83811015610cff578151610ce68882610c46565b9750610cf183610f4b565b925050600181019050610cd2565b5085935050505092915050565b6000610d1782610f40565b610d218185610f76565b935083602082028501610d3385610f25565b8060005b85811015610d6f5784840389528151610d508582610c5e565b9450610d5b83610f58565b925060208a01995050600181019050610d37565b50829750879550505050505092915050565b610d8a81611012565b82525050565b6000610d9d601c83610f87565b9150610da88261116d565b602082019050919050565b600061010083016000830151610dcc6000860182610e63565b506020830151610ddf6020860182610c90565b506040830151610df26040860182610e63565b506060830151610e056060860182610c81565b506080830151610e186080860182610e63565b5060a0830151610e2b60a0860182610e63565b5060c0830151610e3e60c0860182610e63565b5060e083015184820360e0860152610e568282610cae565b9150508091505092915050565b610e6c8161103c565b82525050565b610e7b8161103c565b82525050565b6000606082019050610e966000830186610c72565b610ea36020830185610c9f565b610eb06040830184610e72565b949350505050565b60006020820190508181036000830152610ed28184610d0c565b905092915050565b6000602082019050610eef6000830184610d81565b92915050565b60006020820190508181036000830152610f0e81610d90565b9050919050565b6000819050602082019050919050565b6000819050602082019050919050565b600081519050919050565b600081519050919050565b6000602082019050919050565b6000602082019050919050565b600082825260208201905092915050565b600082825260208201905092915050565b600082825260208201905092915050565b6000610fa38261103c565b9150610fae8361103c565b9250827fffffffffffffffffffffffffffffffffffffffffffffffffffffffffffffffff03821115610fe357610fe26110db565b5b828201905092915050565b6000610ff98261101c565b9050919050565b600061100b8261101c565b9050919050565b6000819050919050565b600073ffffffffffffffffffffffffffffffffffffffff82169050919050565b6000819050919050565b600069ffffffffffffffffffff82169050919050565b60006110678261106e565b9050919050565b600061107982611080565b9050919050565b600061108b8261101c565b9050919050565b600061109d8261103c565b91507fffffffffffffffffffffffffffffffffffffffffffffffffffffffffffffffff8214156110d0576110cf6110db565b5b600182019050919050565b7f4e487b7100000000000000000000000000000000000000000000000000000000600052601160045260246000fd5b7f4e487b7100000000000000000000000000000000000000000000000000000000600052603260045260246000fd5b7f4e487b7100000000000000000000000000000000000000000000000000000000600052604160045260246000fd5b600080fd5b7f506c656173652c207061792074686520726967687420616d6f756e7400000000600082015250565b61119f81610fee565b81146111aa57600080fd5b50565b6111b681611012565b81146111c157600080fd5b50565b6111cd8161103c565b81146111d857600080fd5b50565b6111e481611046565b81146111ef57600080fd5b5056fea264697066735822122001aa628db4b366d3de1ac916ed54ccb0fa2ce700f9dbb682aee4053ec81ab31264736f6c63430008050033",
  "linkReferences": {},
  "deployedLinkReferences": {}
}