{
  "_format": "hh-sol-artifact-1",
  "contractName": "App",
  "sourceName": "contracts/App.sol",
  "abi": [
    {
      "inputs": [],
      "stateMutability": "nonpayable",
      "type": "constructor"
    },
    {
      "inputs": [
        {
          "internalType": "address",
          "name": "_nftContract",
          "type": "address"
        },
        {
          "internalType": "uint256",
          "name": "_nftId",
          "type": "uint256"
        }
      ],
      "name": "buyNFT",
      "outputs": [],
      "stateMutability": "payable",
      "type": "function"
    },
    {
      "inputs": [],
      "name": "getLatestPrice",
      "outputs": [
        {
          "internalType": "int256",
          "name": "",
          "type": "int256"
        }
      ],
      "stateMutability": "view",
      "type": "function"
    },
    {
      "inputs": [],
      "name": "getNFTs",
      "outputs": [
        {
          "components": [
            {
              "internalType": "uint256",
              "name": "itemId",
              "type": "uint256"
            },
            {
              "internalType": "address",
              "name": "nftContract",
              "type": "address"
            },
            {
              "internalType": "uint256",
              "name": "tokenId",
              "type": "uint256"
            },
            {
              "internalType": "address payable",
              "name": "owner",
              "type": "address"
            },
            {
              "internalType": "uint256",
              "name": "price",
              "type": "uint256"
            },
            {
              "internalType": "uint256",
              "name": "watchingFee",
              "type": "uint256"
            },
            {
              "internalType": "uint256",
              "name": "viewersCount",
              "type": "uint256"
            },
            {
              "internalType": "address[]",
              "name": "Viewers",
              "type": "address[]"
            }
          ],
          "internalType": "struct App.Item[]",
          "name": "",
          "type": "tuple[]"
        }
      ],
      "stateMutability": "view",
      "type": "function"
    },
    {
      "inputs": [
        {
          "internalType": "address",
          "name": "_nftContract",
          "type": "address"
        },
        {
          "internalType": "uint256",
          "name": "_tokenId",
          "type": "uint256"
        },
        {
          "internalType": "uint256",
          "name": "_price",
          "type": "uint256"
        },
        {
          "internalType": "uint256",
          "name": "_watchingFee",
          "type": "uint256"
        }
      ],
      "name": "mintNFT",
      "outputs": [],
      "stateMutability": "nonpayable",
      "type": "function"
    },
    {
      "inputs": [
        {
          "internalType": "uint256",
          "name": "_amount",
          "type": "uint256"
        },
        {
          "internalType": "uint256",
          "name": "_itemId",
          "type": "uint256"
        }
      ],
      "name": "payAccessibility",
      "outputs": [],
      "stateMutability": "payable",
      "type": "function"
    }
  ],
  "bytecode": "0x608060405234801561001057600080fd5b506001600081905550739326bfa02add2366b30bacb125260af641031331600260006101000a81548173ffffffffffffffffffffffffffffffffffffffff021916908373ffffffffffffffffffffffffffffffffffffffff1602179055506113e78061007d6000396000f3fe60806040526004361061004a5760003560e01c806321677aea1461004f578063227212f21461006b5780638e15f47314610096578063a82ba76f146100c1578063bcee96af146100dd575b600080fd5b61006960048036038101906100649190610c72565b610106565b005b34801561007757600080fd5b506100806102e7565b60405161008d9190610fe5565b60405180910390f35b3480156100a257600080fd5b506100ab61052b565b6040516100b89190611007565b60405180910390f35b6100db60048036038101906100d69190610bcb565b6105db565b005b3480156100e957600080fd5b5061010460048036038101906100ff9190610c0b565b6107ed565b005b60006003600083815260200190815260200160002090503373ffffffffffffffffffffffffffffffffffffffff168160030160009054906101000a900473ffffffffffffffffffffffffffffffffffffffff1673ffffffffffffffffffffffffffffffffffffffff1614156101b0576040517f08c379a00000000000000000000000000000000000000000000000000000000081526004016101a790611042565b60405180910390fd5b806005015483146101f6576040517f08c379a00000000000000000000000000000000000000000000000000000000081526004016101ed90611022565b60405180910390fd5b8060030160009054906101000a900473ffffffffffffffffffffffffffffffffffffffff1673ffffffffffffffffffffffffffffffffffffffff166108fc349081150290604051600060405180830381858888f19350505050158015610260573d6000803e3d6000fd5b5060018160060160008282546102769190611105565b9250508190555080600701339080600181540180825580915050600190039060005260206000200160009091909190916101000a81548173ffffffffffffffffffffffffffffffffffffffff021916908373ffffffffffffffffffffffffffffffffffffffff160217905550505050565b606060006102f56001610a26565b905060008167ffffffffffffffff811115610313576103126112a6565b5b60405190808252806020026020018201604052801561034c57816020015b610339610a4a565b8152602001906001900390816103315790505b50905060005b82811015610522576003600060018361036b9190611105565b815260200190815260200160002060405180610100016040529081600082015481526020016001820160009054906101000a900473ffffffffffffffffffffffffffffffffffffffff1673ffffffffffffffffffffffffffffffffffffffff1673ffffffffffffffffffffffffffffffffffffffff168152602001600282015481526020016003820160009054906101000a900473ffffffffffffffffffffffffffffffffffffffff1673ffffffffffffffffffffffffffffffffffffffff1673ffffffffffffffffffffffffffffffffffffffff168152602001600482015481526020016005820154815260200160068201548152602001600782018054806020026020016040519081016040528092919081815260200182805480156104e857602002820191906000526020600020905b8160009054906101000a900473ffffffffffffffffffffffffffffffffffffffff1673ffffffffffffffffffffffffffffffffffffffff168152602001906001019080831161049e575b50505050508152505082828151811061050457610503611277565b5b6020026020010181905250808061051a906111ff565b915050610352565b50809250505090565b600080600260009054906101000a900473ffffffffffffffffffffffffffffffffffffffff1673ffffffffffffffffffffffffffffffffffffffff1663feaf968c6040518163ffffffff1660e01b815260040160a06040518083038186803b15801561059657600080fd5b505afa1580156105aa573d6000803e3d6000fd5b505050506040513d601f19601f820116820180604052508101906105ce9190610cb2565b5050509150508091505090565b600060036000838152602001908152602001600020905080600401543414610638576040517f08c379a000000000000000000000000000000000000000000000000000000000815260040161062f90611062565b60405180910390fd5b3373ffffffffffffffffffffffffffffffffffffffff168160030160009054906101000a900473ffffffffffffffffffffffffffffffffffffffff1673ffffffffffffffffffffffffffffffffffffffff16141561069557600080fd5b8060030160009054906101000a900473ffffffffffffffffffffffffffffffffffffffff1673ffffffffffffffffffffffffffffffffffffffff166108fc349081150290604051600060405180830381858888f193505050501580156106ff573d6000803e3d6000fd5b508273ffffffffffffffffffffffffffffffffffffffff166323b872dd8260030160009054906101000a900473ffffffffffffffffffffffffffffffffffffffff1633856040518463ffffffff1660e01b815260040161076193929190610fae565b600060405180830381600087803b15801561077b57600080fd5b505af115801561078f573d6000803e3d6000fd5b50505050336003600084815260200190815260200160002060030160006101000a81548173ffffffffffffffffffffffffffffffffffffffff021916908373ffffffffffffffffffffffffffffffffffffffff160217905550505050565b6107f76001610a34565b60006108036001610a26565b90506040518061010001604052808281526020018673ffffffffffffffffffffffffffffffffffffffff1681526020018581526020013373ffffffffffffffffffffffffffffffffffffffff16815260200184815260200183815260200160008152602001600067ffffffffffffffff811115610883576108826112a6565b5b6040519080825280602002602001820160405280156108b15781602001602082028036833780820191505090505b50815250600360008381526020019081526020016000206000820151816000015560208201518160010160006101000a81548173ffffffffffffffffffffffffffffffffffffffff021916908373ffffffffffffffffffffffffffffffffffffffff1602179055506040820151816002015560608201518160030160006101000a81548173ffffffffffffffffffffffffffffffffffffffff021916908373ffffffffffffffffffffffffffffffffffffffff1602179055506080820151816004015560a0820151816005015560c0820151816006015560e08201518160070190805190602001906109a4929190610abb565b5090505060036000828152602001908152602001600020600701339080600181540180825580915050600190039060005260206000200160009091909190916101000a81548173ffffffffffffffffffffffffffffffffffffffff021916908373ffffffffffffffffffffffffffffffffffffffff1602179055505050505050565b600081600001549050919050565b6001816000016000828254019250508190555050565b60405180610100016040528060008152602001600073ffffffffffffffffffffffffffffffffffffffff16815260200160008152602001600073ffffffffffffffffffffffffffffffffffffffff168152602001600081526020016000815260200160008152602001606081525090565b828054828255906000526020600020908101928215610b34579160200282015b82811115610b335782518260006101000a81548173ffffffffffffffffffffffffffffffffffffffff021916908373ffffffffffffffffffffffffffffffffffffffff16021790555091602001919060010190610adb565b5b509050610b419190610b45565b5090565b5b80821115610b5e576000816000905550600101610b46565b5090565b600081359050610b7181611355565b92915050565b600081519050610b868161136c565b92915050565b600081359050610b9b81611383565b92915050565b600081519050610bb081611383565b92915050565b600081519050610bc58161139a565b92915050565b60008060408385031215610be257610be16112d5565b5b6000610bf085828601610b62565b9250506020610c0185828601610b8c565b9150509250929050565b60008060008060808587031215610c2557610c246112d5565b5b6000610c3387828801610b62565b9450506020610c4487828801610b8c565b9350506040610c5587828801610b8c565b9250506060610c6687828801610b8c565b91505092959194509250565b60008060408385031215610c8957610c886112d5565b5b6000610c9785828601610b8c565b9250506020610ca885828601610b8c565b9150509250929050565b600080600080600060a08688031215610cce57610ccd6112d5565b5b6000610cdc88828901610bb6565b9550506020610ced88828901610b77565b9450506040610cfe88828901610ba1565b9350506060610d0f88828901610ba1565b9250506080610d2088828901610bb6565b9150509295509295909350565b6000610d398383610d77565b60208301905092915050565b6000610d518383610ee0565b905092915050565b610d62816111c9565b82525050565b610d718161116d565b82525050565b610d808161115b565b82525050565b610d8f8161115b565b82525050565b6000610da0826110a2565b610daa81856110d2565b9350610db583611082565b8060005b83811015610de6578151610dcd8882610d2d565b9750610dd8836110b8565b925050600181019050610db9565b5085935050505092915050565b6000610dfe826110ad565b610e0881856110e3565b935083602082028501610e1a85611092565b8060005b85811015610e565784840389528151610e378582610d45565b9450610e42836110c5565b925060208a01995050600181019050610e1e565b50829750879550505050505092915050565b610e718161117f565b82525050565b6000610e84601a836110f4565b9150610e8f826112da565b602082019050919050565b6000610ea7601d836110f4565b9150610eb282611303565b602082019050919050565b6000610eca601c836110f4565b9150610ed58261132c565b602082019050919050565b600061010083016000830151610ef96000860182610f90565b506020830151610f0c6020860182610d77565b506040830151610f1f6040860182610f90565b506060830151610f326060860182610d68565b506080830151610f456080860182610f90565b5060a0830151610f5860a0860182610f90565b5060c0830151610f6b60c0860182610f90565b5060e083015184820360e0860152610f838282610d95565b9150508091505092915050565b610f99816111a9565b82525050565b610fa8816111a9565b82525050565b6000606082019050610fc36000830186610d59565b610fd06020830185610d86565b610fdd6040830184610f9f565b949350505050565b60006020820190508181036000830152610fff8184610df3565b905092915050565b600060208201905061101c6000830184610e68565b92915050565b6000602082019050818103600083015261103b81610e77565b9050919050565b6000602082019050818103600083015261105b81610e9a565b9050919050565b6000602082019050818103600083015261107b81610ebd565b9050919050565b6000819050602082019050919050565b6000819050602082019050919050565b600081519050919050565b600081519050919050565b6000602082019050919050565b6000602082019050919050565b600082825260208201905092915050565b600082825260208201905092915050565b600082825260208201905092915050565b6000611110826111a9565b915061111b836111a9565b9250827fffffffffffffffffffffffffffffffffffffffffffffffffffffffffffffffff038211156111505761114f611248565b5b828201905092915050565b600061116682611189565b9050919050565b600061117882611189565b9050919050565b6000819050919050565b600073ffffffffffffffffffffffffffffffffffffffff82169050919050565b6000819050919050565b600069ffffffffffffffffffff82169050919050565b60006111d4826111db565b9050919050565b60006111e6826111ed565b9050919050565b60006111f882611189565b9050919050565b600061120a826111a9565b91507fffffffffffffffffffffffffffffffffffffffffffffffffffffffffffffffff82141561123d5761123c611248565b5b600182019050919050565b7f4e487b7100000000000000000000000000000000000000000000000000000000600052601160045260246000fd5b7f4e487b7100000000000000000000000000000000000000000000000000000000600052603260045260246000fd5b7f4e487b7100000000000000000000000000000000000000000000000000000000600052604160045260246000fd5b600080fd5b7f50617920746f20726967687420616d6f756e7420706c65617365000000000000600082015250565b7f63616e6e6f742070617920666f7220796f7572206f776e20776f726b21000000600082015250565b7f506c656173652c207061792074686520726967687420616d6f756e7400000000600082015250565b61135e8161115b565b811461136957600080fd5b50565b6113758161117f565b811461138057600080fd5b50565b61138c816111a9565b811461139757600080fd5b50565b6113a3816111b3565b81146113ae57600080fd5b5056fea2646970667358221220688323b9a3adef35755e0358cd24bc9412c77435d4a13a4d3d5c589fe72409c364736f6c63430008050033",
  "linkReferences": {},
  "deployedLinkReferences": {}
}