{
  "_format": "hh-sol-artifact-1",
  "contractName": "App",
  "sourceName": "contracts/App.sol",
  "abi": [
    {
      "inputs": [
        {
          "internalType": "address",
          "name": "_nftContract",
          "type": "address"
        },
        {
          "internalType": "uint256",
          "name": "_amount",
          "type": "uint256"
        },
        {
          "internalType": "uint256",
          "name": "_nftId",
          "type": "uint256"
        }
      ],
      "name": "buyNFT",
      "outputs": [],
      "stateMutability": "payable",
      "type": "function"
    },
    {
      "inputs": [],
      "name": "getNFTs",
      "outputs": [
        {
          "components": [
            {
              "internalType": "uint256",
              "name": "itemId",
              "type": "uint256"
            },
            {
              "internalType": "address",
              "name": "nftContract",
              "type": "address"
            },
            {
              "internalType": "uint256",
              "name": "tokenId",
              "type": "uint256"
            },
            {
              "internalType": "address payable",
              "name": "owner",
              "type": "address"
            },
            {
              "internalType": "uint256",
              "name": "price",
              "type": "uint256"
            },
            {
              "internalType": "uint256",
              "name": "watchingFee",
              "type": "uint256"
            },
            {
              "internalType": "uint256",
              "name": "viewersCount",
              "type": "uint256"
            },
            {
              "internalType": "address[]",
              "name": "Viewers",
              "type": "address[]"
            }
          ],
          "internalType": "struct App.Item[]",
          "name": "",
          "type": "tuple[]"
        }
      ],
      "stateMutability": "view",
      "type": "function"
    },
    {
      "inputs": [
        {
          "internalType": "address",
          "name": "_nftContract",
          "type": "address"
        },
        {
          "internalType": "uint256",
          "name": "_tokenId",
          "type": "uint256"
        },
        {
          "internalType": "uint256",
          "name": "_price",
          "type": "uint256"
        },
        {
          "internalType": "uint256",
          "name": "_watchingFee",
          "type": "uint256"
        }
      ],
      "name": "mintNFT",
      "outputs": [],
      "stateMutability": "nonpayable",
      "type": "function"
    },
    {
      "inputs": [
        {
          "internalType": "uint256",
          "name": "_amount",
          "type": "uint256"
        },
        {
          "internalType": "uint256",
          "name": "_itemId",
          "type": "uint256"
        }
      ],
      "name": "payAccessibility",
      "outputs": [],
      "stateMutability": "payable",
      "type": "function"
    }
  ],
  "bytecode": "0x608060405234801561001057600080fd5b506001600081905550611087806100286000396000f3fe60806040526004361061003f5760003560e01c806321677aea14610044578063227212f21461006057806353da6f011461008b578063bcee96af146100a7575b600080fd5b61005e60048036038101906100599190610a71565b6100d0565b005b34801561006c57600080fd5b5061007561021e565b6040516100829190610d37565b60405180910390f35b6100a560048036038101906100a091906109b7565b610462565b005b3480156100b357600080fd5b506100ce60048036038101906100c99190610a0a565b610618565b005b60006002600083815260200190815260200160002090508060050154831461012d576040517f08c379a000000000000000000000000000000000000000000000000000000000815260040161012490610d59565b60405180910390fd5b8060030160009054906101000a900473ffffffffffffffffffffffffffffffffffffffff1673ffffffffffffffffffffffffffffffffffffffff166108fc849081150290604051600060405180830381858888f19350505050158015610197573d6000803e3d6000fd5b5060018160060160008282546101ad9190610e1c565b9250508190555080600701339080600181540180825580915050600190039060005260206000200160009091909190916101000a81548173ffffffffffffffffffffffffffffffffffffffff021916908373ffffffffffffffffffffffffffffffffffffffff160217905550505050565b6060600061022c6001610851565b905060008167ffffffffffffffff81111561024a57610249610f9d565b5b60405190808252806020026020018201604052801561028357816020015b610270610875565b8152602001906001900390816102685790505b50905060005b8281101561045957600260006001836102a29190610e1c565b815260200190815260200160002060405180610100016040529081600082015481526020016001820160009054906101000a900473ffffffffffffffffffffffffffffffffffffffff1673ffffffffffffffffffffffffffffffffffffffff1673ffffffffffffffffffffffffffffffffffffffff168152602001600282015481526020016003820160009054906101000a900473ffffffffffffffffffffffffffffffffffffffff1673ffffffffffffffffffffffffffffffffffffffff1673ffffffffffffffffffffffffffffffffffffffff1681526020016004820154815260200160058201548152602001600682015481526020016007820180548060200260200160405190810160405280929190818152602001828054801561041f57602002820191906000526020600020905b8160009054906101000a900473ffffffffffffffffffffffffffffffffffffffff1673ffffffffffffffffffffffffffffffffffffffff16815260200190600101908083116103d5575b50505050508152505082828151811061043b5761043a610f6e565b5b6020026020010181905250808061045190610ef6565b915050610289565b50809250505090565b6000600260008381526020019081526020016000209050806004015483146104bf576040517f08c379a00000000000000000000000000000000000000000000000000000000081526004016104b690610d79565b60405180910390fd5b8060030160009054906101000a900473ffffffffffffffffffffffffffffffffffffffff1673ffffffffffffffffffffffffffffffffffffffff166108fc849081150290604051600060405180830381858888f19350505050158015610529573d6000803e3d6000fd5b508373ffffffffffffffffffffffffffffffffffffffff166323b872dd8260030160009054906101000a900473ffffffffffffffffffffffffffffffffffffffff1633856040518463ffffffff1660e01b815260040161058b93929190610d00565b600060405180830381600087803b1580156105a557600080fd5b505af11580156105b9573d6000803e3d6000fd5b50505050336002600084815260200190815260200160002060030160006101000a81548173ffffffffffffffffffffffffffffffffffffffff021916908373ffffffffffffffffffffffffffffffffffffffff16021790555050505050565b610622600161085f565b600061062e6001610851565b90506040518061010001604052808281526020018673ffffffffffffffffffffffffffffffffffffffff1681526020018581526020013373ffffffffffffffffffffffffffffffffffffffff16815260200184815260200183815260200160008152602001600067ffffffffffffffff8111156106ae576106ad610f9d565b5b6040519080825280602002602001820160405280156106dc5781602001602082028036833780820191505090505b50815250600260008381526020019081526020016000206000820151816000015560208201518160010160006101000a81548173ffffffffffffffffffffffffffffffffffffffff021916908373ffffffffffffffffffffffffffffffffffffffff1602179055506040820151816002015560608201518160030160006101000a81548173ffffffffffffffffffffffffffffffffffffffff021916908373ffffffffffffffffffffffffffffffffffffffff1602179055506080820151816004015560a0820151816005015560c0820151816006015560e08201518160070190805190602001906107cf9291906108e6565b5090505060026000828152602001908152602001600020600701339080600181540180825580915050600190039060005260206000200160009091909190916101000a81548173ffffffffffffffffffffffffffffffffffffffff021916908373ffffffffffffffffffffffffffffffffffffffff1602179055505050505050565b600081600001549050919050565b6001816000016000828254019250508190555050565b60405180610100016040528060008152602001600073ffffffffffffffffffffffffffffffffffffffff16815260200160008152602001600073ffffffffffffffffffffffffffffffffffffffff168152602001600081526020016000815260200160008152602001606081525090565b82805482825590600052602060002090810192821561095f579160200282015b8281111561095e5782518260006101000a81548173ffffffffffffffffffffffffffffffffffffffff021916908373ffffffffffffffffffffffffffffffffffffffff16021790555091602001919060010190610906565b5b50905061096c9190610970565b5090565b5b80821115610989576000816000905550600101610971565b5090565b60008135905061099c81611023565b92915050565b6000813590506109b18161103a565b92915050565b6000806000606084860312156109d0576109cf610fcc565b5b60006109de8682870161098d565b93505060206109ef868287016109a2565b9250506040610a00868287016109a2565b9150509250925092565b60008060008060808587031215610a2457610a23610fcc565b5b6000610a328782880161098d565b9450506020610a43878288016109a2565b9350506040610a54878288016109a2565b9250506060610a65878288016109a2565b91505092959194509250565b60008060408385031215610a8857610a87610fcc565b5b6000610a96858286016109a2565b9250506020610aa7858286016109a2565b9150509250929050565b6000610abd8383610afb565b60208301905092915050565b6000610ad58383610c32565b905092915050565b610ae681610ec0565b82525050565b610af581610e84565b82525050565b610b0481610e72565b82525050565b610b1381610e72565b82525050565b6000610b2482610db9565b610b2e8185610de9565b9350610b3983610d99565b8060005b83811015610b6a578151610b518882610ab1565b9750610b5c83610dcf565b925050600181019050610b3d565b5085935050505092915050565b6000610b8282610dc4565b610b8c8185610dfa565b935083602082028501610b9e85610da9565b8060005b85811015610bda5784840389528151610bbb8582610ac9565b9450610bc683610ddc565b925060208a01995050600181019050610ba2565b50829750879550505050505092915050565b6000610bf9601a83610e0b565b9150610c0482610fd1565b602082019050919050565b6000610c1c601c83610e0b565b9150610c2782610ffa565b602082019050919050565b600061010083016000830151610c4b6000860182610ce2565b506020830151610c5e6020860182610afb565b506040830151610c716040860182610ce2565b506060830151610c846060860182610aec565b506080830151610c976080860182610ce2565b5060a0830151610caa60a0860182610ce2565b5060c0830151610cbd60c0860182610ce2565b5060e083015184820360e0860152610cd58282610b19565b9150508091505092915050565b610ceb81610eb6565b82525050565b610cfa81610eb6565b82525050565b6000606082019050610d156000830186610add565b610d226020830185610b0a565b610d2f6040830184610cf1565b949350505050565b60006020820190508181036000830152610d518184610b77565b905092915050565b60006020820190508181036000830152610d7281610bec565b9050919050565b60006020820190508181036000830152610d9281610c0f565b9050919050565b6000819050602082019050919050565b6000819050602082019050919050565b600081519050919050565b600081519050919050565b6000602082019050919050565b6000602082019050919050565b600082825260208201905092915050565b600082825260208201905092915050565b600082825260208201905092915050565b6000610e2782610eb6565b9150610e3283610eb6565b9250827fffffffffffffffffffffffffffffffffffffffffffffffffffffffffffffffff03821115610e6757610e66610f3f565b5b828201905092915050565b6000610e7d82610e96565b9050919050565b6000610e8f82610e96565b9050919050565b600073ffffffffffffffffffffffffffffffffffffffff82169050919050565b6000819050919050565b6000610ecb82610ed2565b9050919050565b6000610edd82610ee4565b9050919050565b6000610eef82610e96565b9050919050565b6000610f0182610eb6565b91507fffffffffffffffffffffffffffffffffffffffffffffffffffffffffffffffff821415610f3457610f33610f3f565b5b600182019050919050565b7f4e487b7100000000000000000000000000000000000000000000000000000000600052601160045260246000fd5b7f4e487b7100000000000000000000000000000000000000000000000000000000600052603260045260246000fd5b7f4e487b7100000000000000000000000000000000000000000000000000000000600052604160045260246000fd5b600080fd5b7f50617920746f20726967687420616d6f756e7420706c65617365000000000000600082015250565b7f506c656173652c207061792074686520726967687420616d6f756e7400000000600082015250565b61102c81610e72565b811461103757600080fd5b50565b61104381610eb6565b811461104e57600080fd5b5056fea26469706673582212208a1c2d009d4347ef9b0c997809968363857bd5fa5a2215588ebf9e1eb4d9f30f64736f6c63430008050033",
  "linkReferences": {},
  "deployedLinkReferences": {}
}