{
  "_format": "hh-sol-artifact-1",
  "contractName": "App",
  "sourceName": "contracts/App.sol",
  "abi": [
    {
      "inputs": [],
      "stateMutability": "nonpayable",
      "type": "constructor"
    },
    {
      "inputs": [
        {
          "internalType": "address",
          "name": "_nftContract",
          "type": "address"
        },
        {
          "internalType": "uint256",
          "name": "_nftId",
          "type": "uint256"
        }
      ],
      "name": "buyNFT",
      "outputs": [],
      "stateMutability": "payable",
      "type": "function"
    },
    {
      "inputs": [],
      "name": "getLatestPrice",
      "outputs": [
        {
          "internalType": "int256",
          "name": "",
          "type": "int256"
        }
      ],
      "stateMutability": "view",
      "type": "function"
    },
    {
      "inputs": [],
      "name": "getNFTs",
      "outputs": [
        {
          "components": [
            {
              "internalType": "uint256",
              "name": "itemId",
              "type": "uint256"
            },
            {
              "internalType": "address",
              "name": "nftContract",
              "type": "address"
            },
            {
              "internalType": "uint256",
              "name": "tokenId",
              "type": "uint256"
            },
            {
              "internalType": "address payable",
              "name": "owner",
              "type": "address"
            },
            {
              "internalType": "uint256",
              "name": "price",
              "type": "uint256"
            },
            {
              "internalType": "int256",
              "name": "usdPrice",
              "type": "int256"
            },
            {
              "internalType": "uint256",
              "name": "watchingFee",
              "type": "uint256"
            },
            {
              "internalType": "uint256",
              "name": "viewersCount",
              "type": "uint256"
            },
            {
              "internalType": "address[]",
              "name": "Viewers",
              "type": "address[]"
            }
          ],
          "internalType": "struct App.Item[]",
          "name": "",
          "type": "tuple[]"
        }
      ],
      "stateMutability": "view",
      "type": "function"
    },
    {
      "inputs": [
        {
          "internalType": "address",
          "name": "_nftContract",
          "type": "address"
        },
        {
          "internalType": "uint256",
          "name": "_tokenId",
          "type": "uint256"
        },
        {
          "internalType": "uint256",
          "name": "_price",
          "type": "uint256"
        },
        {
          "internalType": "uint256",
          "name": "_watchingFee",
          "type": "uint256"
        }
      ],
      "name": "mintNFT",
      "outputs": [],
      "stateMutability": "nonpayable",
      "type": "function"
    },
    {
      "inputs": [
        {
          "internalType": "uint256",
          "name": "_itemId",
          "type": "uint256"
        }
      ],
      "name": "payAccessibility",
      "outputs": [],
      "stateMutability": "payable",
      "type": "function"
    }
  ],
  "bytecode": "0x608060405234801561001057600080fd5b50600160008190555073d0d5e3db44de05e9f294bb0a3beeaf030de24ada600260006101000a81548173ffffffffffffffffffffffffffffffffffffffff021916908373ffffffffffffffffffffffffffffffffffffffff1602179055506115ef8061007d6000396000f3fe60806040526004361061004a5760003560e01c8063227212f21461004f5780632d17da721461007a5780638e15f47314610096578063a82ba76f146100c1578063bcee96af146100dd575b600080fd5b34801561005b57600080fd5b50610064610106565b604051610071919061108d565b60405180910390f35b610094600480360381019061008f9190610ce6565b610354565b005b3480156100a257600080fd5b506100ab610534565b6040516100b891906110af565b60405180910390f35b6100db60048036038101906100d69190610c3f565b6105e4565b005b3480156100e957600080fd5b5061010460048036038101906100ff9190610c7f565b61082c565b005b606060006101146001610a93565b905060008167ffffffffffffffff81111561013257610131611485565b5b60405190808252806020026020018201604052801561016b57816020015b610158610ab7565b8152602001906001900390816101505790505b50905060005b8281101561034b576003600060018361018a91906111cd565b815260200190815260200160002060405180610120016040529081600082015481526020016001820160009054906101000a900473ffffffffffffffffffffffffffffffffffffffff1673ffffffffffffffffffffffffffffffffffffffff1673ffffffffffffffffffffffffffffffffffffffff168152602001600282015481526020016003820160009054906101000a900473ffffffffffffffffffffffffffffffffffffffff1673ffffffffffffffffffffffffffffffffffffffff1673ffffffffffffffffffffffffffffffffffffffff168152602001600482015481526020016005820154815260200160068201548152602001600782015481526020016008820180548060200260200160405190810160405280929190818152602001828054801561031157602002820191906000526020600020905b8160009054906101000a900473ffffffffffffffffffffffffffffffffffffffff1673ffffffffffffffffffffffffffffffffffffffff16815260200190600101908083116102c7575b50505050508152505082828151811061032d5761032c611456565b5b60200260200101819052508080610343906113de565b915050610171565b50809250505090565b60006003600083815260200190815260200160002090503373ffffffffffffffffffffffffffffffffffffffff168160030160009054906101000a900473ffffffffffffffffffffffffffffffffffffffff1673ffffffffffffffffffffffffffffffffffffffff1614156103fe576040517f08c379a00000000000000000000000000000000000000000000000000000000081526004016103f59061110a565b60405180910390fd5b80600601543414610444576040517f08c379a000000000000000000000000000000000000000000000000000000000815260040161043b906110ca565b60405180910390fd5b8060030160009054906101000a900473ffffffffffffffffffffffffffffffffffffffff1673ffffffffffffffffffffffffffffffffffffffff166108fc349081150290604051600060405180830381858888f193505050501580156104ae573d6000803e3d6000fd5b5060018160070160008282546104c491906111cd565b9250508190555080600801339080600181540180825580915050600190039060005260206000200160009091909190916101000a81548173ffffffffffffffffffffffffffffffffffffffff021916908373ffffffffffffffffffffffffffffffffffffffff1602179055505050565b600080600260009054906101000a900473ffffffffffffffffffffffffffffffffffffffff1673ffffffffffffffffffffffffffffffffffffffff1663feaf968c6040518163ffffffff1660e01b815260040160a06040518083038186803b15801561059f57600080fd5b505afa1580156105b3573d6000803e3d6000fd5b505050506040513d601f19601f820116820180604052508101906105d79190610d13565b5050509150508091505090565b600060036000838152602001908152602001600020905080600401543414610641576040517f08c379a00000000000000000000000000000000000000000000000000000000081526004016106389061112a565b60405180910390fd5b3373ffffffffffffffffffffffffffffffffffffffff168160030160009054906101000a900473ffffffffffffffffffffffffffffffffffffffff1673ffffffffffffffffffffffffffffffffffffffff1614156106d4576040517f08c379a00000000000000000000000000000000000000000000000000000000081526004016106cb906110ea565b60405180910390fd5b8060030160009054906101000a900473ffffffffffffffffffffffffffffffffffffffff1673ffffffffffffffffffffffffffffffffffffffff166108fc349081150290604051600060405180830381858888f1935050505015801561073e573d6000803e3d6000fd5b508273ffffffffffffffffffffffffffffffffffffffff166342842e0e8260030160009054906101000a900473ffffffffffffffffffffffffffffffffffffffff1633856040518463ffffffff1660e01b81526004016107a093929190611056565b600060405180830381600087803b1580156107ba57600080fd5b505af11580156107ce573d6000803e3d6000fd5b50505050336003600084815260200190815260200160002060030160006101000a81548173ffffffffffffffffffffffffffffffffffffffff021916908373ffffffffffffffffffffffffffffffffffffffff160217905550505050565b6108366001610aa1565b60006108426001610a93565b905060006402540be400610854610534565b61085e9190611223565b90506040518061012001604052808381526020018773ffffffffffffffffffffffffffffffffffffffff1681526020018681526020013373ffffffffffffffffffffffffffffffffffffffff16815260200185815260200182815260200184815260200160008152602001600067ffffffffffffffff8111156108e4576108e3611485565b5b6040519080825280602002602001820160405280156109125781602001602082028036833780820191505090505b50815250600360008481526020019081526020016000206000820151816000015560208201518160010160006101000a81548173ffffffffffffffffffffffffffffffffffffffff021916908373ffffffffffffffffffffffffffffffffffffffff1602179055506040820151816002015560608201518160030160006101000a81548173ffffffffffffffffffffffffffffffffffffffff021916908373ffffffffffffffffffffffffffffffffffffffff1602179055506080820151816004015560a0820151816005015560c0820151816006015560e08201518160070155610100820151816008019080519060200190610a10929190610b2f565b5090505060036000838152602001908152602001600020600801339080600181540180825580915050600190039060005260206000200160009091909190916101000a81548173ffffffffffffffffffffffffffffffffffffffff021916908373ffffffffffffffffffffffffffffffffffffffff160217905550505050505050565b600081600001549050919050565b6001816000016000828254019250508190555050565b60405180610120016040528060008152602001600073ffffffffffffffffffffffffffffffffffffffff16815260200160008152602001600073ffffffffffffffffffffffffffffffffffffffff16815260200160008152602001600081526020016000815260200160008152602001606081525090565b828054828255906000526020600020908101928215610ba8579160200282015b82811115610ba75782518260006101000a81548173ffffffffffffffffffffffffffffffffffffffff021916908373ffffffffffffffffffffffffffffffffffffffff16021790555091602001919060010190610b4f565b5b509050610bb59190610bb9565b5090565b5b80821115610bd2576000816000905550600101610bba565b5090565b600081359050610be58161155d565b92915050565b600081519050610bfa81611574565b92915050565b600081359050610c0f8161158b565b92915050565b600081519050610c248161158b565b92915050565b600081519050610c39816115a2565b92915050565b60008060408385031215610c5657610c556114b4565b5b6000610c6485828601610bd6565b9250506020610c7585828601610c00565b9150509250929050565b60008060008060808587031215610c9957610c986114b4565b5b6000610ca787828801610bd6565b9450506020610cb887828801610c00565b9350506040610cc987828801610c00565b9250506060610cda87828801610c00565b91505092959194509250565b600060208284031215610cfc57610cfb6114b4565b5b6000610d0a84828501610c00565b91505092915050565b600080600080600060a08688031215610d2f57610d2e6114b4565b5b6000610d3d88828901610c2a565b9550506020610d4e88828901610beb565b9450506040610d5f88828901610c15565b9350506060610d7088828901610c15565b9250506080610d8188828901610c2a565b9150509295509295909350565b6000610d9a8383610dd8565b60208301905092915050565b6000610db28383610f73565b905092915050565b610dc3816113a8565b82525050565b610dd28161134c565b82525050565b610de18161133a565b82525050565b610df08161133a565b82525050565b6000610e018261116a565b610e0b818561119a565b9350610e168361114a565b8060005b83811015610e47578151610e2e8882610d8e565b9750610e3983611180565b925050600181019050610e1a565b5085935050505092915050565b6000610e5f82611175565b610e6981856111ab565b935083602082028501610e7b8561115a565b8060005b85811015610eb75784840389528151610e988582610da6565b9450610ea38361118d565b925060208a01995050600181019050610e7f565b50829750879550505050505092915050565b610ed28161135e565b82525050565b610ee18161135e565b82525050565b6000610ef4601a836111bc565b9150610eff826114b9565b602082019050919050565b6000610f17601c836111bc565b9150610f22826114e2565b602082019050919050565b6000610f3a601d836111bc565b9150610f458261150b565b602082019050919050565b6000610f5d601c836111bc565b9150610f6882611534565b602082019050919050565b600061012083016000830151610f8c6000860182611038565b506020830151610f9f6020860182610dd8565b506040830151610fb26040860182611038565b506060830151610fc56060860182610dc9565b506080830151610fd86080860182611038565b5060a0830151610feb60a0860182610ec9565b5060c0830151610ffe60c0860182611038565b5060e083015161101160e0860182611038565b5061010083015184820361010086015261102b8282610df6565b9150508091505092915050565b61104181611388565b82525050565b61105081611388565b82525050565b600060608201905061106b6000830186610dba565b6110786020830185610de7565b6110856040830184611047565b949350505050565b600060208201905081810360008301526110a78184610e54565b905092915050565b60006020820190506110c46000830184610ed8565b92915050565b600060208201905081810360008301526110e381610ee7565b9050919050565b6000602082019050818103600083015261110381610f0a565b9050919050565b6000602082019050818103600083015261112381610f2d565b9050919050565b6000602082019050818103600083015261114381610f50565b9050919050565b6000819050602082019050919050565b6000819050602082019050919050565b600081519050919050565b600081519050919050565b6000602082019050919050565b6000602082019050919050565b600082825260208201905092915050565b600082825260208201905092915050565b600082825260208201905092915050565b60006111d882611388565b91506111e383611388565b9250827fffffffffffffffffffffffffffffffffffffffffffffffffffffffffffffffff0382111561121857611217611427565b5b828201905092915050565b600061122e8261135e565b91506112398361135e565b9250827f7fffffffffffffffffffffffffffffffffffffffffffffffffffffffffffffff048211600084136000841316161561127857611277611427565b5b817f800000000000000000000000000000000000000000000000000000000000000005831260008412600084131616156112b5576112b4611427565b5b827f800000000000000000000000000000000000000000000000000000000000000005821260008413600084121616156112f2576112f1611427565b5b827f7fffffffffffffffffffffffffffffffffffffffffffffffffffffffffffffff058212600084126000841216161561132f5761132e611427565b5b828202905092915050565b600061134582611368565b9050919050565b600061135782611368565b9050919050565b6000819050919050565b600073ffffffffffffffffffffffffffffffffffffffff82169050919050565b6000819050919050565b600069ffffffffffffffffffff82169050919050565b60006113b3826113ba565b9050919050565b60006113c5826113cc565b9050919050565b60006113d782611368565b9050919050565b60006113e982611388565b91507fffffffffffffffffffffffffffffffffffffffffffffffffffffffffffffffff82141561141c5761141b611427565b5b600182019050919050565b7f4e487b7100000000000000000000000000000000000000000000000000000000600052601160045260246000fd5b7f4e487b7100000000000000000000000000000000000000000000000000000000600052603260045260246000fd5b7f4e487b7100000000000000000000000000000000000000000000000000000000600052604160045260246000fd5b600080fd5b7f50617920746f20726967687420616d6f756e7420706c65617365000000000000600082015250565b7f596f752063616e6e6f742062757920796f7572206f776e20776f726b00000000600082015250565b7f63616e6e6f742070617920666f7220796f7572206f776e20776f726b21000000600082015250565b7f506c656173652c207061792074686520726967687420616d6f756e7400000000600082015250565b6115668161133a565b811461157157600080fd5b50565b61157d8161135e565b811461158857600080fd5b50565b61159481611388565b811461159f57600080fd5b50565b6115ab81611392565b81146115b657600080fd5b5056fea264697066735822122056b17612eccb1052bd4363a43c608e29f151c9d822034b00a74409d70e0ec28664736f6c63430008050033",
  "linkReferences": {},
  "deployedLinkReferences": {}
}