{
  "_format": "hh-sol-artifact-1",
  "contractName": "App",
  "sourceName": "contracts/App.sol",
  "abi": [
    {
      "inputs": [],
      "stateMutability": "nonpayable",
      "type": "constructor"
    },
    {
      "inputs": [
        {
          "internalType": "address",
          "name": "_nftContract",
          "type": "address"
        },
        {
          "internalType": "uint256",
          "name": "_nftId",
          "type": "uint256"
        }
      ],
      "name": "buyNFT",
      "outputs": [],
      "stateMutability": "payable",
      "type": "function"
    },
    {
      "inputs": [],
      "name": "getLatestPrice",
      "outputs": [
        {
          "internalType": "int256",
          "name": "",
          "type": "int256"
        }
      ],
      "stateMutability": "view",
      "type": "function"
    },
    {
      "inputs": [],
      "name": "getNFTs",
      "outputs": [
        {
          "components": [
            {
              "internalType": "uint256",
              "name": "itemId",
              "type": "uint256"
            },
            {
              "internalType": "address",
              "name": "nftContract",
              "type": "address"
            },
            {
              "internalType": "uint256",
              "name": "tokenId",
              "type": "uint256"
            },
            {
              "internalType": "address payable",
              "name": "owner",
              "type": "address"
            },
            {
              "internalType": "uint256",
              "name": "price",
              "type": "uint256"
            },
            {
              "internalType": "uint256",
              "name": "watchingFee",
              "type": "uint256"
            },
            {
              "internalType": "uint256",
              "name": "viewersCount",
              "type": "uint256"
            },
            {
              "internalType": "address[]",
              "name": "Viewers",
              "type": "address[]"
            }
          ],
          "internalType": "struct App.Item[]",
          "name": "",
          "type": "tuple[]"
        }
      ],
      "stateMutability": "view",
      "type": "function"
    },
    {
      "inputs": [
        {
          "internalType": "address",
          "name": "_nftContract",
          "type": "address"
        },
        {
          "internalType": "uint256",
          "name": "_tokenId",
          "type": "uint256"
        },
        {
          "internalType": "uint256",
          "name": "_price",
          "type": "uint256"
        },
        {
          "internalType": "uint256",
          "name": "_watchingFee",
          "type": "uint256"
        }
      ],
      "name": "mintNFT",
      "outputs": [],
      "stateMutability": "nonpayable",
      "type": "function"
    },
    {
      "inputs": [
        {
          "internalType": "uint256",
          "name": "_itemId",
          "type": "uint256"
        }
      ],
      "name": "payAccessibility",
      "outputs": [],
      "stateMutability": "payable",
      "type": "function"
    }
  ],
  "bytecode": "0x608060405234801561001057600080fd5b506001600081905550739326bfa02add2366b30bacb125260af641031331600260006101000a81548173ffffffffffffffffffffffffffffffffffffffff021916908373ffffffffffffffffffffffffffffffffffffffff16021790555061140c8061007d6000396000f3fe60806040526004361061004a5760003560e01c8063227212f21461004f5780632d17da721461007a5780638e15f47314610096578063a82ba76f146100c1578063bcee96af146100dd575b600080fd5b34801561005b57600080fd5b50610064610106565b6040516100719190610ff7565b60405180910390f35b610094600480360381019061008f9190610c83565b61034a565b005b3480156100a257600080fd5b506100ab61052a565b6040516100b89190611019565b60405180910390f35b6100db60048036038101906100d69190610bdc565b6105da565b005b3480156100e957600080fd5b5061010460048036038101906100ff9190610c1c565b6107fe565b005b606060006101146001610a37565b905060008167ffffffffffffffff811115610132576101316112a2565b5b60405190808252806020026020018201604052801561016b57816020015b610158610a5b565b8152602001906001900390816101505790505b50905060005b82811015610341576003600060018361018a9190611137565b815260200190815260200160002060405180610100016040529081600082015481526020016001820160009054906101000a900473ffffffffffffffffffffffffffffffffffffffff1673ffffffffffffffffffffffffffffffffffffffff1673ffffffffffffffffffffffffffffffffffffffff168152602001600282015481526020016003820160009054906101000a900473ffffffffffffffffffffffffffffffffffffffff1673ffffffffffffffffffffffffffffffffffffffff1673ffffffffffffffffffffffffffffffffffffffff1681526020016004820154815260200160058201548152602001600682015481526020016007820180548060200260200160405190810160405280929190818152602001828054801561030757602002820191906000526020600020905b8160009054906101000a900473ffffffffffffffffffffffffffffffffffffffff1673ffffffffffffffffffffffffffffffffffffffff16815260200190600101908083116102bd575b50505050508152505082828151811061032357610322611273565b5b60200260200101819052508080610339906111fb565b915050610171565b50809250505090565b60006003600083815260200190815260200160002090503373ffffffffffffffffffffffffffffffffffffffff168160030160009054906101000a900473ffffffffffffffffffffffffffffffffffffffff1673ffffffffffffffffffffffffffffffffffffffff1614156103f4576040517f08c379a00000000000000000000000000000000000000000000000000000000081526004016103eb90611074565b60405180910390fd5b8060050154341461043a576040517f08c379a000000000000000000000000000000000000000000000000000000000815260040161043190611034565b60405180910390fd5b8060030160009054906101000a900473ffffffffffffffffffffffffffffffffffffffff1673ffffffffffffffffffffffffffffffffffffffff166108fc349081150290604051600060405180830381858888f193505050501580156104a4573d6000803e3d6000fd5b5060018160060160008282546104ba9190611137565b9250508190555080600701339080600181540180825580915050600190039060005260206000200160009091909190916101000a81548173ffffffffffffffffffffffffffffffffffffffff021916908373ffffffffffffffffffffffffffffffffffffffff1602179055505050565b600080600260009054906101000a900473ffffffffffffffffffffffffffffffffffffffff1673ffffffffffffffffffffffffffffffffffffffff1663feaf968c6040518163ffffffff1660e01b815260040160a06040518083038186803b15801561059557600080fd5b505afa1580156105a9573d6000803e3d6000fd5b505050506040513d601f19601f820116820180604052508101906105cd9190610cb0565b5050509150508091505090565b600060036000838152602001908152602001600020905080600401543414610637576040517f08c379a000000000000000000000000000000000000000000000000000000000815260040161062e90611094565b60405180910390fd5b3373ffffffffffffffffffffffffffffffffffffffff168160030160009054906101000a900473ffffffffffffffffffffffffffffffffffffffff1673ffffffffffffffffffffffffffffffffffffffff1614156106ca576040517f08c379a00000000000000000000000000000000000000000000000000000000081526004016106c190611054565b60405180910390fd5b8060030160009054906101000a900473ffffffffffffffffffffffffffffffffffffffff1673ffffffffffffffffffffffffffffffffffffffff166108fc349081150290604051600060405180830381858888f19350505050158015610734573d6000803e3d6000fd5b508273ffffffffffffffffffffffffffffffffffffffff166342842e0e3033856040518463ffffffff1660e01b815260040161077293929190610fc0565b600060405180830381600087803b15801561078c57600080fd5b505af11580156107a0573d6000803e3d6000fd5b50505050336003600084815260200190815260200160002060030160006101000a81548173ffffffffffffffffffffffffffffffffffffffff021916908373ffffffffffffffffffffffffffffffffffffffff160217905550505050565b6108086001610a45565b60006108146001610a37565b90506040518061010001604052808281526020018673ffffffffffffffffffffffffffffffffffffffff1681526020018581526020013373ffffffffffffffffffffffffffffffffffffffff16815260200184815260200183815260200160008152602001600067ffffffffffffffff811115610894576108936112a2565b5b6040519080825280602002602001820160405280156108c25781602001602082028036833780820191505090505b50815250600360008381526020019081526020016000206000820151816000015560208201518160010160006101000a81548173ffffffffffffffffffffffffffffffffffffffff021916908373ffffffffffffffffffffffffffffffffffffffff1602179055506040820151816002015560608201518160030160006101000a81548173ffffffffffffffffffffffffffffffffffffffff021916908373ffffffffffffffffffffffffffffffffffffffff1602179055506080820151816004015560a0820151816005015560c0820151816006015560e08201518160070190805190602001906109b5929190610acc565b5090505060036000828152602001908152602001600020600701339080600181540180825580915050600190039060005260206000200160009091909190916101000a81548173ffffffffffffffffffffffffffffffffffffffff021916908373ffffffffffffffffffffffffffffffffffffffff1602179055505050505050565b600081600001549050919050565b6001816000016000828254019250508190555050565b60405180610100016040528060008152602001600073ffffffffffffffffffffffffffffffffffffffff16815260200160008152602001600073ffffffffffffffffffffffffffffffffffffffff168152602001600081526020016000815260200160008152602001606081525090565b828054828255906000526020600020908101928215610b45579160200282015b82811115610b445782518260006101000a81548173ffffffffffffffffffffffffffffffffffffffff021916908373ffffffffffffffffffffffffffffffffffffffff16021790555091602001919060010190610aec565b5b509050610b529190610b56565b5090565b5b80821115610b6f576000816000905550600101610b57565b5090565b600081359050610b828161137a565b92915050565b600081519050610b9781611391565b92915050565b600081359050610bac816113a8565b92915050565b600081519050610bc1816113a8565b92915050565b600081519050610bd6816113bf565b92915050565b60008060408385031215610bf357610bf26112d1565b5b6000610c0185828601610b73565b9250506020610c1285828601610b9d565b9150509250929050565b60008060008060808587031215610c3657610c356112d1565b5b6000610c4487828801610b73565b9450506020610c5587828801610b9d565b9350506040610c6687828801610b9d565b9250506060610c7787828801610b9d565b91505092959194509250565b600060208284031215610c9957610c986112d1565b5b6000610ca784828501610b9d565b91505092915050565b600080600080600060a08688031215610ccc57610ccb6112d1565b5b6000610cda88828901610bc7565b9550506020610ceb88828901610b88565b9450506040610cfc88828901610bb2565b9350506060610d0d88828901610bb2565b9250506080610d1e88828901610bc7565b9150509295509295909350565b6000610d378383610d66565b60208301905092915050565b6000610d4f8383610ef2565b905092915050565b610d608161119f565b82525050565b610d6f8161118d565b82525050565b610d7e8161118d565b82525050565b6000610d8f826110d4565b610d998185611104565b9350610da4836110b4565b8060005b83811015610dd5578151610dbc8882610d2b565b9750610dc7836110ea565b925050600181019050610da8565b5085935050505092915050565b6000610ded826110df565b610df78185611115565b935083602082028501610e09856110c4565b8060005b85811015610e455784840389528151610e268582610d43565b9450610e31836110f7565b925060208a01995050600181019050610e0d565b50829750879550505050505092915050565b610e60816111b1565b82525050565b6000610e73601a83611126565b9150610e7e826112d6565b602082019050919050565b6000610e96601c83611126565b9150610ea1826112ff565b602082019050919050565b6000610eb9601d83611126565b9150610ec482611328565b602082019050919050565b6000610edc601c83611126565b9150610ee782611351565b602082019050919050565b600061010083016000830151610f0b6000860182610fa2565b506020830151610f1e6020860182610d66565b506040830151610f316040860182610fa2565b506060830151610f446060860182610d57565b506080830151610f576080860182610fa2565b5060a0830151610f6a60a0860182610fa2565b5060c0830151610f7d60c0860182610fa2565b5060e083015184820360e0860152610f958282610d84565b9150508091505092915050565b610fab816111db565b82525050565b610fba816111db565b82525050565b6000606082019050610fd56000830186610d75565b610fe26020830185610d75565b610fef6040830184610fb1565b949350505050565b600060208201905081810360008301526110118184610de2565b905092915050565b600060208201905061102e6000830184610e57565b92915050565b6000602082019050818103600083015261104d81610e66565b9050919050565b6000602082019050818103600083015261106d81610e89565b9050919050565b6000602082019050818103600083015261108d81610eac565b9050919050565b600060208201905081810360008301526110ad81610ecf565b9050919050565b6000819050602082019050919050565b6000819050602082019050919050565b600081519050919050565b600081519050919050565b6000602082019050919050565b6000602082019050919050565b600082825260208201905092915050565b600082825260208201905092915050565b600082825260208201905092915050565b6000611142826111db565b915061114d836111db565b9250827fffffffffffffffffffffffffffffffffffffffffffffffffffffffffffffffff0382111561118257611181611244565b5b828201905092915050565b6000611198826111bb565b9050919050565b60006111aa826111bb565b9050919050565b6000819050919050565b600073ffffffffffffffffffffffffffffffffffffffff82169050919050565b6000819050919050565b600069ffffffffffffffffffff82169050919050565b6000611206826111db565b91507fffffffffffffffffffffffffffffffffffffffffffffffffffffffffffffffff82141561123957611238611244565b5b600182019050919050565b7f4e487b7100000000000000000000000000000000000000000000000000000000600052601160045260246000fd5b7f4e487b7100000000000000000000000000000000000000000000000000000000600052603260045260246000fd5b7f4e487b7100000000000000000000000000000000000000000000000000000000600052604160045260246000fd5b600080fd5b7f50617920746f20726967687420616d6f756e7420706c65617365000000000000600082015250565b7f596f752063616e6e6f742062757920796f7572206f776e20776f726b00000000600082015250565b7f63616e6e6f742070617920666f7220796f7572206f776e20776f726b21000000600082015250565b7f506c656173652c207061792074686520726967687420616d6f756e7400000000600082015250565b6113838161118d565b811461138e57600080fd5b50565b61139a816111b1565b81146113a557600080fd5b50565b6113b1816111db565b81146113bc57600080fd5b50565b6113c8816111e5565b81146113d357600080fd5b5056fea26469706673582212208ae65f4adeddfd8d68868995baba116d006be4f0979ed50107118fd508de5faa64736f6c63430008050033",
  "linkReferences": {},
  "deployedLinkReferences": {}
}