{
  "_format": "hh-sol-artifact-1",
  "contractName": "App",
  "sourceName": "contracts/App.sol",
  "abi": [
    {
      "inputs": [],
      "stateMutability": "nonpayable",
      "type": "constructor"
    },
    {
      "inputs": [
        {
          "internalType": "address",
          "name": "_nftContract",
          "type": "address"
        },
        {
          "internalType": "uint256",
          "name": "_amount",
          "type": "uint256"
        },
        {
          "internalType": "uint256",
          "name": "_nftId",
          "type": "uint256"
        }
      ],
      "name": "buyNFT",
      "outputs": [],
      "stateMutability": "payable",
      "type": "function"
    },
    {
      "inputs": [],
      "name": "getLatestPrice",
      "outputs": [
        {
          "internalType": "int256",
          "name": "",
          "type": "int256"
        }
      ],
      "stateMutability": "view",
      "type": "function"
    },
    {
      "inputs": [],
      "name": "getNFTs",
      "outputs": [
        {
          "components": [
            {
              "internalType": "uint256",
              "name": "itemId",
              "type": "uint256"
            },
            {
              "internalType": "address",
              "name": "nftContract",
              "type": "address"
            },
            {
              "internalType": "uint256",
              "name": "tokenId",
              "type": "uint256"
            },
            {
              "internalType": "address payable",
              "name": "owner",
              "type": "address"
            },
            {
              "internalType": "uint256",
              "name": "price",
              "type": "uint256"
            },
            {
              "internalType": "uint256",
              "name": "watchingFee",
              "type": "uint256"
            },
            {
              "internalType": "uint256",
              "name": "viewersCount",
              "type": "uint256"
            },
            {
              "internalType": "address[]",
              "name": "Viewers",
              "type": "address[]"
            }
          ],
          "internalType": "struct App.Item[]",
          "name": "",
          "type": "tuple[]"
        }
      ],
      "stateMutability": "view",
      "type": "function"
    },
    {
      "inputs": [
        {
          "internalType": "address",
          "name": "_nftContract",
          "type": "address"
        },
        {
          "internalType": "uint256",
          "name": "_tokenId",
          "type": "uint256"
        },
        {
          "internalType": "uint256",
          "name": "_price",
          "type": "uint256"
        },
        {
          "internalType": "uint256",
          "name": "_watchingFee",
          "type": "uint256"
        }
      ],
      "name": "mintNFT",
      "outputs": [],
      "stateMutability": "nonpayable",
      "type": "function"
    },
    {
      "inputs": [
        {
          "internalType": "uint256",
          "name": "_amount",
          "type": "uint256"
        },
        {
          "internalType": "uint256",
          "name": "_itemId",
          "type": "uint256"
        }
      ],
      "name": "payAccessibility",
      "outputs": [],
      "stateMutability": "payable",
      "type": "function"
    }
  ],
  "bytecode": "0x608060405234801561001057600080fd5b506001600081905550739326bfa02add2366b30bacb125260af641031331600260006101000a81548173ffffffffffffffffffffffffffffffffffffffff021916908373ffffffffffffffffffffffffffffffffffffffff1602179055506113fb8061007d6000396000f3fe60806040526004361061004a5760003560e01c806321677aea1461004f578063227212f21461006b57806353da6f01146100965780638e15f473146100b2578063bcee96af146100dd575b600080fd5b61006960048036038101906100649190610c86565b610106565b005b34801561007757600080fd5b506100806102e7565b60405161008d9190610ff9565b60405180910390f35b6100b060048036038101906100ab9190610bcc565b61052b565b005b3480156100be57600080fd5b506100c761073e565b6040516100d4919061101b565b60405180910390f35b3480156100e957600080fd5b5061010460048036038101906100ff9190610c1f565b6107ee565b005b60006003600083815260200190815260200160002090503373ffffffffffffffffffffffffffffffffffffffff168160030160009054906101000a900473ffffffffffffffffffffffffffffffffffffffff1673ffffffffffffffffffffffffffffffffffffffff1614156101b0576040517f08c379a00000000000000000000000000000000000000000000000000000000081526004016101a790611056565b60405180910390fd5b806005015483146101f6576040517f08c379a00000000000000000000000000000000000000000000000000000000081526004016101ed90611036565b60405180910390fd5b8060030160009054906101000a900473ffffffffffffffffffffffffffffffffffffffff1673ffffffffffffffffffffffffffffffffffffffff166108fc849081150290604051600060405180830381858888f19350505050158015610260573d6000803e3d6000fd5b5060018160060160008282546102769190611119565b9250508190555080600701339080600181540180825580915050600190039060005260206000200160009091909190916101000a81548173ffffffffffffffffffffffffffffffffffffffff021916908373ffffffffffffffffffffffffffffffffffffffff160217905550505050565b606060006102f56001610a27565b905060008167ffffffffffffffff811115610313576103126112ba565b5b60405190808252806020026020018201604052801561034c57816020015b610339610a4b565b8152602001906001900390816103315790505b50905060005b82811015610522576003600060018361036b9190611119565b815260200190815260200160002060405180610100016040529081600082015481526020016001820160009054906101000a900473ffffffffffffffffffffffffffffffffffffffff1673ffffffffffffffffffffffffffffffffffffffff1673ffffffffffffffffffffffffffffffffffffffff168152602001600282015481526020016003820160009054906101000a900473ffffffffffffffffffffffffffffffffffffffff1673ffffffffffffffffffffffffffffffffffffffff1673ffffffffffffffffffffffffffffffffffffffff168152602001600482015481526020016005820154815260200160068201548152602001600782018054806020026020016040519081016040528092919081815260200182805480156104e857602002820191906000526020600020905b8160009054906101000a900473ffffffffffffffffffffffffffffffffffffffff1673ffffffffffffffffffffffffffffffffffffffff168152602001906001019080831161049e575b5050505050815250508282815181106105045761050361128b565b5b6020026020010181905250808061051a90611213565b915050610352565b50809250505090565b600060036000838152602001908152602001600020905080600401548314610588576040517f08c379a000000000000000000000000000000000000000000000000000000000815260040161057f90611076565b60405180910390fd5b3373ffffffffffffffffffffffffffffffffffffffff168160030160009054906101000a900473ffffffffffffffffffffffffffffffffffffffff1673ffffffffffffffffffffffffffffffffffffffff1614156105e557600080fd5b8060030160009054906101000a900473ffffffffffffffffffffffffffffffffffffffff1673ffffffffffffffffffffffffffffffffffffffff166108fc849081150290604051600060405180830381858888f1935050505015801561064f573d6000803e3d6000fd5b508373ffffffffffffffffffffffffffffffffffffffff166323b872dd8260030160009054906101000a900473ffffffffffffffffffffffffffffffffffffffff1633856040518463ffffffff1660e01b81526004016106b193929190610fc2565b600060405180830381600087803b1580156106cb57600080fd5b505af11580156106df573d6000803e3d6000fd5b50505050336003600084815260200190815260200160002060030160006101000a81548173ffffffffffffffffffffffffffffffffffffffff021916908373ffffffffffffffffffffffffffffffffffffffff16021790555050505050565b600080600260009054906101000a900473ffffffffffffffffffffffffffffffffffffffff1673ffffffffffffffffffffffffffffffffffffffff1663feaf968c6040518163ffffffff1660e01b815260040160a06040518083038186803b1580156107a957600080fd5b505afa1580156107bd573d6000803e3d6000fd5b505050506040513d601f19601f820116820180604052508101906107e19190610cc6565b5050509150508091505090565b6107f86001610a35565b60006108046001610a27565b90506040518061010001604052808281526020018673ffffffffffffffffffffffffffffffffffffffff1681526020018581526020013373ffffffffffffffffffffffffffffffffffffffff16815260200184815260200183815260200160008152602001600067ffffffffffffffff811115610884576108836112ba565b5b6040519080825280602002602001820160405280156108b25781602001602082028036833780820191505090505b50815250600360008381526020019081526020016000206000820151816000015560208201518160010160006101000a81548173ffffffffffffffffffffffffffffffffffffffff021916908373ffffffffffffffffffffffffffffffffffffffff1602179055506040820151816002015560608201518160030160006101000a81548173ffffffffffffffffffffffffffffffffffffffff021916908373ffffffffffffffffffffffffffffffffffffffff1602179055506080820151816004015560a0820151816005015560c0820151816006015560e08201518160070190805190602001906109a5929190610abc565b5090505060036000828152602001908152602001600020600701339080600181540180825580915050600190039060005260206000200160009091909190916101000a81548173ffffffffffffffffffffffffffffffffffffffff021916908373ffffffffffffffffffffffffffffffffffffffff1602179055505050505050565b600081600001549050919050565b6001816000016000828254019250508190555050565b60405180610100016040528060008152602001600073ffffffffffffffffffffffffffffffffffffffff16815260200160008152602001600073ffffffffffffffffffffffffffffffffffffffff168152602001600081526020016000815260200160008152602001606081525090565b828054828255906000526020600020908101928215610b35579160200282015b82811115610b345782518260006101000a81548173ffffffffffffffffffffffffffffffffffffffff021916908373ffffffffffffffffffffffffffffffffffffffff16021790555091602001919060010190610adc565b5b509050610b429190610b46565b5090565b5b80821115610b5f576000816000905550600101610b47565b5090565b600081359050610b7281611369565b92915050565b600081519050610b8781611380565b92915050565b600081359050610b9c81611397565b92915050565b600081519050610bb181611397565b92915050565b600081519050610bc6816113ae565b92915050565b600080600060608486031215610be557610be46112e9565b5b6000610bf386828701610b63565b9350506020610c0486828701610b8d565b9250506040610c1586828701610b8d565b9150509250925092565b60008060008060808587031215610c3957610c386112e9565b5b6000610c4787828801610b63565b9450506020610c5887828801610b8d565b9350506040610c6987828801610b8d565b9250506060610c7a87828801610b8d565b91505092959194509250565b60008060408385031215610c9d57610c9c6112e9565b5b6000610cab85828601610b8d565b9250506020610cbc85828601610b8d565b9150509250929050565b600080600080600060a08688031215610ce257610ce16112e9565b5b6000610cf088828901610bb7565b9550506020610d0188828901610b78565b9450506040610d1288828901610ba2565b9350506060610d2388828901610ba2565b9250506080610d3488828901610bb7565b9150509295509295909350565b6000610d4d8383610d8b565b60208301905092915050565b6000610d658383610ef4565b905092915050565b610d76816111dd565b82525050565b610d8581611181565b82525050565b610d948161116f565b82525050565b610da38161116f565b82525050565b6000610db4826110b6565b610dbe81856110e6565b9350610dc983611096565b8060005b83811015610dfa578151610de18882610d41565b9750610dec836110cc565b925050600181019050610dcd565b5085935050505092915050565b6000610e12826110c1565b610e1c81856110f7565b935083602082028501610e2e856110a6565b8060005b85811015610e6a5784840389528151610e4b8582610d59565b9450610e56836110d9565b925060208a01995050600181019050610e32565b50829750879550505050505092915050565b610e8581611193565b82525050565b6000610e98601a83611108565b9150610ea3826112ee565b602082019050919050565b6000610ebb601d83611108565b9150610ec682611317565b602082019050919050565b6000610ede601c83611108565b9150610ee982611340565b602082019050919050565b600061010083016000830151610f0d6000860182610fa4565b506020830151610f206020860182610d8b565b506040830151610f336040860182610fa4565b506060830151610f466060860182610d7c565b506080830151610f596080860182610fa4565b5060a0830151610f6c60a0860182610fa4565b5060c0830151610f7f60c0860182610fa4565b5060e083015184820360e0860152610f978282610da9565b9150508091505092915050565b610fad816111bd565b82525050565b610fbc816111bd565b82525050565b6000606082019050610fd76000830186610d6d565b610fe46020830185610d9a565b610ff16040830184610fb3565b949350505050565b600060208201905081810360008301526110138184610e07565b905092915050565b60006020820190506110306000830184610e7c565b92915050565b6000602082019050818103600083015261104f81610e8b565b9050919050565b6000602082019050818103600083015261106f81610eae565b9050919050565b6000602082019050818103600083015261108f81610ed1565b9050919050565b6000819050602082019050919050565b6000819050602082019050919050565b600081519050919050565b600081519050919050565b6000602082019050919050565b6000602082019050919050565b600082825260208201905092915050565b600082825260208201905092915050565b600082825260208201905092915050565b6000611124826111bd565b915061112f836111bd565b9250827fffffffffffffffffffffffffffffffffffffffffffffffffffffffffffffffff038211156111645761116361125c565b5b828201905092915050565b600061117a8261119d565b9050919050565b600061118c8261119d565b9050919050565b6000819050919050565b600073ffffffffffffffffffffffffffffffffffffffff82169050919050565b6000819050919050565b600069ffffffffffffffffffff82169050919050565b60006111e8826111ef565b9050919050565b60006111fa82611201565b9050919050565b600061120c8261119d565b9050919050565b600061121e826111bd565b91507fffffffffffffffffffffffffffffffffffffffffffffffffffffffffffffffff8214156112515761125061125c565b5b600182019050919050565b7f4e487b7100000000000000000000000000000000000000000000000000000000600052601160045260246000fd5b7f4e487b7100000000000000000000000000000000000000000000000000000000600052603260045260246000fd5b7f4e487b7100000000000000000000000000000000000000000000000000000000600052604160045260246000fd5b600080fd5b7f50617920746f20726967687420616d6f756e7420706c65617365000000000000600082015250565b7f63616e6e6f742070617920666f7220796f7572206f776e20776f726b21000000600082015250565b7f506c656173652c207061792074686520726967687420616d6f756e7400000000600082015250565b6113728161116f565b811461137d57600080fd5b50565b61138981611193565b811461139457600080fd5b50565b6113a0816111bd565b81146113ab57600080fd5b50565b6113b7816111c7565b81146113c257600080fd5b5056fea2646970667358221220247d559541d057429f3364c470791126c6e8c51bc02dc74196a3b18cd2fd27e364736f6c63430008050033",
  "linkReferences": {},
  "deployedLinkReferences": {}
}